{
  "_format": "hh-sol-artifact-1",
  "contractName": "PerpV2LeverageModule",
  "sourceName": "contracts/protocol/modules/PerpV2LeverageModule.sol",
  "abi": [
    {
      "inputs": [
        {
          "internalType": "contract IController",
          "name": "_controller",
          "type": "address"
        },
        {
          "internalType": "contract IAccountBalance",
          "name": "_perpAccountBalance",
          "type": "address"
        },
        {
          "internalType": "contract IClearingHouse",
          "name": "_perpClearingHouse",
          "type": "address"
        },
        {
          "internalType": "contract IExchange",
          "name": "_perpExchange",
          "type": "address"
        },
        {
          "internalType": "contract IVault",
          "name": "_perpVault",
          "type": "address"
        },
        {
          "internalType": "contract IQuoter",
          "name": "_perpQuoter",
          "type": "address"
        },
        {
          "internalType": "contract IMarketRegistry",
          "name": "_perpMarketRegistry",
          "type": "address"
        },
        {
          "internalType": "contract IERC20",
          "name": "_collateralToken",
          "type": "address"
        }
      ],
      "stateMutability": "nonpayable",
      "type": "constructor"
    },
    {
      "anonymous": false,
      "inputs": [
        {
          "indexed": true,
          "internalType": "bool",
          "name": "_anySetAllowed",
          "type": "bool"
        }
      ],
      "name": "AnySetAllowedUpdated",
      "type": "event"
    },
    {
      "anonymous": false,
      "inputs": [
        {
          "indexed": true,
          "internalType": "address",
          "name": "previousOwner",
          "type": "address"
        },
        {
          "indexed": true,
          "internalType": "address",
          "name": "newOwner",
          "type": "address"
        }
      ],
      "name": "OwnershipTransferred",
      "type": "event"
    },
    {
      "anonymous": false,
      "inputs": [
        {
          "indexed": true,
          "internalType": "contract ISetToken",
          "name": "_setToken",
          "type": "address"
        },
        {
          "indexed": true,
          "internalType": "address",
          "name": "_baseToken",
          "type": "address"
        },
        {
          "indexed": false,
          "internalType": "uint256",
          "name": "_deltaBase",
          "type": "uint256"
        },
        {
          "indexed": false,
          "internalType": "uint256",
          "name": "_deltaQuote",
          "type": "uint256"
        },
        {
          "indexed": false,
          "internalType": "uint256",
          "name": "_protocolFee",
          "type": "uint256"
        },
        {
          "indexed": false,
          "internalType": "bool",
          "name": "_isBuy",
          "type": "bool"
        }
      ],
      "name": "PerpTrade",
      "type": "event"
    },
    {
      "anonymous": false,
      "inputs": [
        {
          "indexed": true,
          "internalType": "contract ISetToken",
          "name": "_setToken",
          "type": "address"
        },
        {
          "indexed": true,
          "internalType": "bool",
          "name": "_added",
          "type": "bool"
        }
      ],
      "name": "SetTokenStatusUpdated",
      "type": "event"
    },
    {
      "inputs": [
        {
          "internalType": "contract ISetToken",
          "name": "",
          "type": "address"
        }
      ],
      "name": "allowedSetTokens",
      "outputs": [
        {
          "internalType": "bool",
          "name": "",
          "type": "bool"
        }
      ],
      "stateMutability": "view",
      "type": "function"
    },
    {
      "inputs": [],
      "name": "anySetAllowed",
      "outputs": [
        {
          "internalType": "bool",
          "name": "",
          "type": "bool"
        }
      ],
      "stateMutability": "view",
      "type": "function"
    },
    {
      "inputs": [],
      "name": "collateralToken",
      "outputs": [
        {
          "internalType": "contract IERC20",
          "name": "",
          "type": "address"
        }
      ],
      "stateMutability": "view",
      "type": "function"
    },
    {
      "inputs": [
        {
          "internalType": "contract ISetToken",
          "name": "_setToken",
          "type": "address"
        },
        {
          "internalType": "uint256",
          "name": "_setTokenQuantity",
          "type": "uint256"
        },
        {
          "internalType": "contract IERC20",
          "name": "_component",
          "type": "address"
        },
        {
          "internalType": "bool",
          "name": "_isEquity",
          "type": "bool"
        }
      ],
      "name": "componentIssueHook",
      "outputs": [],
      "stateMutability": "nonpayable",
      "type": "function"
    },
    {
      "inputs": [
        {
          "internalType": "contract ISetToken",
          "name": "_setToken",
          "type": "address"
        },
        {
          "internalType": "uint256",
          "name": "_setTokenQuantity",
          "type": "uint256"
        },
        {
          "internalType": "contract IERC20",
          "name": "_component",
          "type": "address"
        },
        {
          "internalType": "bool",
          "name": "_isEquity",
          "type": "bool"
        }
      ],
      "name": "componentRedeemHook",
      "outputs": [],
      "stateMutability": "nonpayable",
      "type": "function"
    },
    {
      "inputs": [],
      "name": "controller",
      "outputs": [
        {
          "internalType": "contract IController",
          "name": "",
          "type": "address"
        }
      ],
      "stateMutability": "view",
      "type": "function"
    },
    {
      "inputs": [
        {
          "internalType": "contract ISetToken",
          "name": "_setToken",
          "type": "address"
        },
        {
          "internalType": "uint256",
          "name": "_collateralQuantityUnits",
          "type": "uint256"
        }
      ],
      "name": "deposit",
      "outputs": [],
      "stateMutability": "nonpayable",
      "type": "function"
    },
    {
      "inputs": [
        {
          "internalType": "address",
          "name": "_baseToken",
          "type": "address"
        }
      ],
      "name": "getAMMSpotPrice",
      "outputs": [
        {
          "internalType": "uint256",
          "name": "price",
          "type": "uint256"
        }
      ],
      "stateMutability": "view",
      "type": "function"
    },
    {
      "inputs": [
        {
          "internalType": "contract ISetToken",
          "name": "_setToken",
          "type": "address"
        }
      ],
      "name": "getAccountInfo",
      "outputs": [
        {
          "components": [
            {
              "internalType": "int256",
              "name": "collateralBalance",
              "type": "int256"
            },
            {
              "internalType": "int256",
              "name": "owedRealizedPnl",
              "type": "int256"
            },
            {
              "internalType": "int256",
              "name": "pendingFundingPayments",
              "type": "int256"
            },
            {
              "internalType": "int256",
              "name": "netQuoteBalance",
              "type": "int256"
            }
          ],
          "internalType": "struct PerpV2LeverageModule.AccountInfo",
          "name": "accountInfo",
          "type": "tuple"
        }
      ],
      "stateMutability": "view",
      "type": "function"
    },
    {
      "inputs": [
        {
          "internalType": "contract ISetToken",
          "name": "_setToken",
          "type": "address"
        },
        {
          "internalType": "uint256",
          "name": "_setTokenQuantity",
          "type": "uint256"
        }
      ],
      "name": "getIssuanceAdjustments",
      "outputs": [
        {
          "internalType": "int256[]",
          "name": "",
          "type": "int256[]"
        },
        {
          "internalType": "int256[]",
          "name": "",
          "type": "int256[]"
        }
      ],
      "stateMutability": "nonpayable",
      "type": "function"
    },
    {
      "inputs": [
        {
          "internalType": "contract ISetToken",
          "name": "_setToken",
          "type": "address"
        }
      ],
      "name": "getPositionNotionalInfo",
      "outputs": [
        {
          "components": [
            {
              "internalType": "address",
              "name": "baseToken",
              "type": "address"
            },
            {
              "internalType": "int256",
              "name": "baseBalance",
              "type": "int256"
            },
            {
              "internalType": "int256",
              "name": "quoteBalance",
              "type": "int256"
            }
          ],
          "internalType": "struct PerpV2LeverageModule.PositionNotionalInfo[]",
          "name": "",
          "type": "tuple[]"
        }
      ],
      "stateMutability": "view",
      "type": "function"
    },
    {
      "inputs": [
        {
          "internalType": "contract ISetToken",
          "name": "_setToken",
          "type": "address"
        }
      ],
      "name": "getPositionUnitInfo",
      "outputs": [
        {
          "components": [
            {
              "internalType": "address",
              "name": "baseToken",
              "type": "address"
            },
            {
              "internalType": "int256",
              "name": "baseUnit",
              "type": "int256"
            },
            {
              "internalType": "int256",
              "name": "quoteUnit",
              "type": "int256"
            }
          ],
          "internalType": "struct PerpV2LeverageModule.PositionUnitInfo[]",
          "name": "",
          "type": "tuple[]"
        }
      ],
      "stateMutability": "view",
      "type": "function"
    },
    {
      "inputs": [
        {
          "internalType": "contract ISetToken",
          "name": "_setToken",
          "type": "address"
        },
        {
          "internalType": "uint256",
          "name": "_setTokenQuantity",
          "type": "uint256"
        }
      ],
      "name": "getRedemptionAdjustments",
      "outputs": [
        {
          "internalType": "int256[]",
          "name": "",
          "type": "int256[]"
        },
        {
          "internalType": "int256[]",
          "name": "_",
          "type": "int256[]"
        }
      ],
      "stateMutability": "nonpayable",
      "type": "function"
    },
    {
      "inputs": [
        {
          "internalType": "contract ISetToken",
          "name": "_setToken",
          "type": "address"
        }
      ],
      "name": "initialize",
      "outputs": [],
      "stateMutability": "nonpayable",
      "type": "function"
    },
    {
      "inputs": [
        {
          "internalType": "contract ISetToken",
          "name": "_setToken",
          "type": "address"
        },
        {
          "internalType": "uint256",
          "name": "_setTokenQuantity",
          "type": "uint256"
        }
      ],
      "name": "moduleIssueHook",
      "outputs": [],
      "stateMutability": "nonpayable",
      "type": "function"
    },
    {
      "inputs": [
        {
          "internalType": "contract ISetToken",
          "name": "_setToken",
          "type": "address"
        },
        {
          "internalType": "uint256",
          "name": "_setTokenQuantity",
          "type": "uint256"
        }
      ],
      "name": "moduleRedeemHook",
      "outputs": [],
      "stateMutability": "nonpayable",
      "type": "function"
    },
    {
      "inputs": [],
      "name": "owner",
      "outputs": [
        {
          "internalType": "address",
          "name": "",
          "type": "address"
        }
      ],
      "stateMutability": "view",
      "type": "function"
    },
    {
      "inputs": [],
      "name": "perpAccountBalance",
      "outputs": [
        {
          "internalType": "contract IAccountBalance",
          "name": "",
          "type": "address"
        }
      ],
      "stateMutability": "view",
      "type": "function"
    },
    {
      "inputs": [],
      "name": "perpClearingHouse",
      "outputs": [
        {
          "internalType": "contract IClearingHouse",
          "name": "",
          "type": "address"
        }
      ],
      "stateMutability": "view",
      "type": "function"
    },
    {
      "inputs": [],
      "name": "perpExchange",
      "outputs": [
        {
          "internalType": "contract IExchange",
          "name": "",
          "type": "address"
        }
      ],
      "stateMutability": "view",
      "type": "function"
    },
    {
      "inputs": [],
      "name": "perpMarketRegistry",
      "outputs": [
        {
          "internalType": "contract IMarketRegistry",
          "name": "",
          "type": "address"
        }
      ],
      "stateMutability": "view",
      "type": "function"
    },
    {
      "inputs": [],
      "name": "perpQuoter",
      "outputs": [
        {
          "internalType": "contract IQuoter",
          "name": "",
          "type": "address"
        }
      ],
      "stateMutability": "view",
      "type": "function"
    },
    {
      "inputs": [],
      "name": "perpVault",
      "outputs": [
        {
          "internalType": "contract IVault",
          "name": "",
          "type": "address"
        }
      ],
      "stateMutability": "view",
      "type": "function"
    },
    {
      "inputs": [
        {
          "internalType": "contract ISetToken",
          "name": "",
          "type": "address"
        },
        {
          "internalType": "uint256",
          "name": "",
          "type": "uint256"
        }
      ],
      "name": "positions",
      "outputs": [
        {
          "internalType": "address",
          "name": "",
          "type": "address"
        }
      ],
      "stateMutability": "view",
      "type": "function"
    },
    {
      "inputs": [
        {
          "internalType": "contract ISetToken",
          "name": "_setToken",
          "type": "address"
        },
        {
          "internalType": "contract IDebtIssuanceModule",
          "name": "_debtIssuanceModule",
          "type": "address"
        }
      ],
      "name": "registerToModule",
      "outputs": [],
      "stateMutability": "nonpayable",
      "type": "function"
    },
    {
      "inputs": [],
      "name": "removeModule",
      "outputs": [],
      "stateMutability": "nonpayable",
      "type": "function"
    },
    {
      "inputs": [],
      "name": "renounceOwnership",
      "outputs": [],
      "stateMutability": "nonpayable",
      "type": "function"
    },
    {
      "inputs": [
        {
          "internalType": "contract ISetToken",
          "name": "_setToken",
          "type": "address"
        },
        {
          "internalType": "address",
          "name": "_baseToken",
          "type": "address"
        },
        {
          "internalType": "int256",
          "name": "_baseQuantityUnits",
          "type": "int256"
        },
        {
          "internalType": "uint256",
          "name": "_receiveQuoteQuantityUnits",
          "type": "uint256"
        }
      ],
      "name": "trade",
      "outputs": [],
      "stateMutability": "nonpayable",
      "type": "function"
    },
    {
      "inputs": [
        {
          "internalType": "address",
          "name": "newOwner",
          "type": "address"
        }
      ],
      "name": "transferOwnership",
      "outputs": [],
      "stateMutability": "nonpayable",
      "type": "function"
    },
    {
      "inputs": [
        {
          "internalType": "contract ISetToken",
          "name": "_setToken",
          "type": "address"
        },
        {
          "internalType": "bool",
          "name": "_status",
          "type": "bool"
        }
      ],
      "name": "updateAllowedSetToken",
      "outputs": [],
      "stateMutability": "nonpayable",
      "type": "function"
    },
    {
      "inputs": [
        {
          "internalType": "bool",
          "name": "_anySetAllowed",
          "type": "bool"
        }
      ],
      "name": "updateAnySetAllowed",
      "outputs": [],
      "stateMutability": "nonpayable",
      "type": "function"
    },
    {
      "inputs": [
        {
          "internalType": "contract ISetToken",
          "name": "_setToken",
          "type": "address"
        },
        {
          "internalType": "uint256",
          "name": "_collateralQuantityUnits",
          "type": "uint256"
        }
      ],
      "name": "withdraw",
      "outputs": [],
      "stateMutability": "nonpayable",
      "type": "function"
    }
  ],
  "bytecode": "0x6101606040523480156200001257600080fd5b50604051620063d1380380620063d18339810160408190526200003591620000fa565b600080546001600160a01b0319166001600160a01b038a16178155600180556200005e620000f6565b600280546001600160a01b0319166001600160a01b038316908117909155604051919250906000907f8be0079c531659141344cd1fd0a4f28419497f9722a3daafe3b4186f6b6457e0908290a3506001600160601b0319606097881b811660805295871b861660a05293861b851660c05291851b841660e052841b831661010052831b82166101205290911b166101405250620001d3565b3390565b600080600080600080600080610100898b03121562000117578384fd5b88516200012481620001ba565b60208a01519098506200013781620001ba565b60408a01519097506200014a81620001ba565b60608a01519096506200015d81620001ba565b60808a01519095506200017081620001ba565b60a08a01519094506200018381620001ba565b60c08a01519093506200019681620001ba565b60e08a0151909250620001a981620001ba565b809150509295985092959890939650565b6001600160a01b0381168114620001d057600080fd5b50565b60805160601c60a05160601c60c05160601c60e05160601c6101005160601c6101205160601c6101405160601c6160f0620002e1600039806105d9528061120a5280611fe852806120905280612382528061248c52806125a75280612657528061292852806129ce5280612c595280612de3528061316b52806131c652806132e35280613aaf525080610741528061179352508061122e528061420a525080610a0b5280612009528061206e5280612bb95280612dc1525080610cf352806111dd52806145dc5250806109e7528061289752508061043a5280610ba35280610c30528061100a52806110cd5280611a0e5280611b0a5280612a15528061453a52806147ce52506160f06000f3fe608060405234801561001057600080fd5b50600436106101f05760003560e01c8063b1dd4d921161010f578063cb44f343116100a2578063f2fde38b11610071578063f2fde38b146103f7578063f3fef3a31461040a578063f77c47911461041d578063fc62d9fe14610425576101f0565b8063cb44f3431461039b578063d23cd564146103a3578063da1cbb48146103c4578063ee78244f146103e4576101f0565b8063c153dd07116100de578063c153dd071461034f578063c1be667714610362578063c4d66de814610375578063c690a74c14610388576101f0565b8063b1dd4d9214610317578063b2016bd41461032c578063b2ad61d514610334578063c137f4d71461033c576101f0565b80636273010d11610187578063847ef08d11610156578063847ef08d146102df5780638da5cb5b146102e757806395ba2006146102ef5780639f71e2691461030f576101f0565b80636273010d1461029c5780636aecef92146102a4578063715018a6146102b75780637b510fe8146102bf576101f0565b8063513fb1bb116101c3578063513fb1bb1461024e5780635199e4181461026e5780635b13651214610281578063616516f214610294576101f0565b80630b23207c146101f55780630fb96b21146102135780633fe6106b1461022857806347e7ef241461023b575b600080fd5b6101fd610438565b60405161020a919061565a565b60405180910390f35b6102266102213660046153dc565b61045c565b005b6102266102363660046153b1565b610520565b6102266102493660046153b1565b61063e565b61026161025c366004615160565b61073c565b60405161020a919061601e565b61022661027c366004615243565b610877565b61022661028f366004615384565b6108e9565b6101fd6109e5565b6101fd610a09565b6102266102b2366004615307565b610a2d565b610226610b02565b6102d26102cd366004615160565b610b81565b60405161020a9190615ff3565b610226610da9565b6101fd610ef9565b6103026102fd366004615160565b610f09565b60405161020a919061573d565b6101fd6111db565b61031f6111ff565b60405161020a91906157cd565b6101fd611208565b6101fd61122c565b61022661034a3660046153dc565b611250565b61022661035d3660046153b1565b61130a565b6101fd6103703660046153b1565b61139c565b610226610383366004615160565b6113d1565b61022661039636600461534c565b611649565b6101fd611791565b6103b66103b13660046153b1565b6117b5565b60405161020a929190615718565b6103d76103d2366004615160565b61188f565b60405161020a919061578b565b61031f6103f2366004615160565b611b92565b610226610405366004615160565b611ba7565b6102266104183660046153b1565b611c5e565b6101fd611d4a565b6103b66104333660046153b1565b611d59565b7f000000000000000000000000000000000000000000000000000000000000000081565b8361046681611e02565b8115610519576040516308bafae960e21b81526000906001600160a01b038716906322ebeba49061049d908790309060040161566e565b60206040518083038186803b1580156104b557600080fd5b505afa1580156104c9573d6000803e3d6000fd5b505050506040513d601f19601f820116820180604052508101906104ed919061544d565b9050600061050a6104fd83611f47565b879063ffffffff611f6d16565b90506105168782611fd9565b50505b5050505050565b8161052a81611e02565b826001600160a01b03166318160ddd6040518163ffffffff1660e01b815260040160206040518083038186803b15801561056357600080fd5b505afa158015610577573d6000803e3d6000fd5b505050506040513d601f19601f8201168201806040525081019061059b919061544d565b6105a457610639565b60006105b2848460006120e6565b6040516363a90fc160e01b81529091506001600160a01b038516906363a90fc190610605907f000000000000000000000000000000000000000000000000000000000000000090309086906004016156b4565b600060405180830381600087803b15801561061f57600080fd5b505af1158015610633573d6000803e3d6000fd5b50505050505b505050565b6002600154141561066a5760405162461bcd60e51b815260040161066190615fbc565b60405180910390fd5b60026001558161067981612427565b600082116106995760405162461bcd60e51b815260040161066190615d86565b6000836001600160a01b03166318160ddd6040518163ffffffff1660e01b815260040160206040518083038186803b1580156106d457600080fd5b505afa1580156106e8573d6000803e3d6000fd5b505050506040513d601f19601f8201168201806040525081019061070c919061544d565b116107295760405162461bcd60e51b815260040161066190615c4d565b6107338383612472565b50506001805550565b6000807f00000000000000000000000000000000000000000000000000000000000000006001600160a01b031663bbe4f6db846040518263ffffffff1660e01b815260040161078b919061565a565b60206040518083038186803b1580156107a357600080fd5b505afa1580156107b7573d6000803e3d6000fd5b505050506040513d601f19601f820116820180604052508101906107db919061517c565b90506000816001600160a01b0316633850c7bd6040518163ffffffff1660e01b815260040160e06040518083038186803b15801561081857600080fd5b505afa15801561082c573d6000803e3d6000fd5b505050506040513d601f19601f82011682018060405250810190610850919061550c565b50505050505090506000610863826126a8565b905061086e816126c2565b95945050505050565b61087f6126db565b6002546001600160a01b039081169116146108ac5760405162461bcd60e51b815260040161066190615ca5565b6005805460ff19168215159081179091556040517f563e1633136cdd43b8793897cb53ba2a9e31c18b3ae0b6827fbbb03b9902e6c690600090a250565b816108f381612427565b6040516335fc6c9f60e21b81526001600160a01b0384169063d7f1b27c9061091f90859060040161565a565b60206040518083038186803b15801561093757600080fd5b505afa15801561094b573d6000803e3d6000fd5b505050506040513d601f19601f8201168201806040525081019061096f919061525f565b61098b5760405162461bcd60e51b815260040161066190615b85565b6040516306cd8db760e51b81526001600160a01b0383169063d9b1b6e0906109b790869060040161565a565b600060405180830381600087803b1580156109d157600080fd5b505af1158015610516573d6000803e3d6000fd5b7f000000000000000000000000000000000000000000000000000000000000000081565b7f000000000000000000000000000000000000000000000000000000000000000081565b60026001541415610a505760405162461bcd60e51b815260040161066190615fbc565b600260015583610a5f81612427565b610a67614fc9565b610a73868686866126df565b9050600080610a838360006127b6565b915091506000610a938983612910565b9050610a9f89896129fb565b876001600160a01b0316896001600160a01b03167f1f102d5a81167c2f9aa96170817b7c509338d0f4a866a7648908b6ae5bd0926385858560008d13604051610aeb9493929190616027565b60405180910390a350506001805550505050505050565b610b0a6126db565b6002546001600160a01b03908116911614610b375760405162461bcd60e51b815260040161066190615ca5565b6002546040516000916001600160a01b0316907f8be0079c531659141344cd1fd0a4f28419497f9722a3daafe3b4186f6b6457e0908390a3600280546001600160a01b0319169055565b610b89614ffe565b60405163bba85bcf60e01b81526000906001600160a01b037f0000000000000000000000000000000000000000000000000000000000000000169063bba85bcf90610bd890869060040161565a565b60606040518083038186803b158015610bf057600080fd5b505afa158015610c04573d6000803e3d6000fd5b505050506040513d601f19601f82011682018060405250810190610c289190615465565b5050905060007f00000000000000000000000000000000000000000000000000000000000000006001600160a01b0316634c294e5f856040518263ffffffff1660e01b8152600401610c7a919061565a565b604080518083038186803b158015610c9157600080fd5b505afa158015610ca5573d6000803e3d6000fd5b505050506040513d601f19601f82011682018060405250810190610cc99190615492565b5090506040518060800160405280610ce086612bb4565b8152602001838152602001610d996000197f00000000000000000000000000000000000000000000000000000000000000006001600160a01b03166380f57f11896040518263ffffffff1660e01b8152600401610d3d919061565a565b60206040518083038186803b158015610d5557600080fd5b505afa158015610d69573d6000803e3d6000fd5b505050506040513d601f19601f82011682018060405250810190610d8d919061544d565b9063ffffffff612cf416565b8152602001919091529392505050565b33610db38161244d565b33610dbd81612bb4565b15610dda5760405162461bcd60e51b81526004016106619061597d565b6001600160a01b0381166000908152600360205260408120610dfb91615026565b6060816001600160a01b031663b2494df36040518163ffffffff1660e01b815260040160006040518083038186803b158015610e3657600080fd5b505afa158015610e4a573d6000803e3d6000fd5b505050506040513d6000823e601f3d908101601f19168201604052610e729190810190615198565b905060005b8151811015610ef357818181518110610e8c57fe5b60200260200101516001600160a01b031663e0799620846040518263ffffffff1660e01b8152600401610ebf919061565a565b600060405180830381600087803b158015610ed957600080fd5b505af1925050508015610eea575060015b50600101610e77565b50505050565b6002546001600160a01b03165b90565b6001600160a01b038116600090815260036020526040902054606090819067ffffffffffffffff81118015610f3d57600080fd5b50604051908082528060200260200182016040528015610f7757816020015b610f64615044565b815260200190600190039081610f5c5790505b50905060005b6001600160a01b0384166000908152600360205260409020548110156111d457604051806060016040528060036000876001600160a01b03166001600160a01b031681526020019081526020016000208381548110610fd857fe5b60009182526020808320909101546001600160a01b0390811684528881168352600382526040909220805493909101927f00000000000000000000000000000000000000000000000000000000000000009092169163b3bd6e129189918790811061103f57fe5b6000918252602090912001546040516001600160e01b031960e085901b16815261107692916001600160a01b03169060040161566e565b60206040518083038186803b15801561108e57600080fd5b505afa1580156110a2573d6000803e3d6000fd5b505050506040513d601f19601f820116820180604052508101906110c6919061544d565b81526020017f00000000000000000000000000000000000000000000000000000000000000006001600160a01b0316637a5b45a087600360008a6001600160a01b03166001600160a01b03168152602001908152602001600020868154811061112b57fe5b6000918252602090912001546040516001600160e01b031960e085901b16815261116292916001600160a01b03169060040161566e565b60206040518083038186803b15801561117a57600080fd5b505afa15801561118e573d6000803e3d6000fd5b505050506040513d601f19601f820116820180604052508101906111b2919061544d565b8152508282815181106111c157fe5b6020908102919091010152600101610f7d565b5092915050565b7f000000000000000000000000000000000000000000000000000000000000000081565b60055460ff1681565b7f000000000000000000000000000000000000000000000000000000000000000081565b7f000000000000000000000000000000000000000000000000000000000000000081565b8361125a81611e02565b8115610519576040516308bafae960e21b81526000906001600160a01b038716906322ebeba490611291908790309060040161566e565b60206040518083038186803b1580156112a957600080fd5b505afa1580156112bd573d6000803e3d6000fd5b505050506040513d601f19601f820116820180604052508101906112e1919061544d565b905060006112fe6112f183611f47565b879063ffffffff612d5f16565b90506105168782612d7d565b8161131481611e02565b826001600160a01b03166318160ddd6040518163ffffffff1660e01b815260040160206040518083038186803b15801561134d57600080fd5b505afa158015611361573d6000803e3d6000fd5b505050506040513d601f19601f82011682018060405250810190611385919061544d565b61138e57610639565b60006105b284846000612e11565b600360205281600052604060002081815481106113b557fe5b6000918252602090912001546001600160a01b03169150829050565b80336113dd8282612fd3565b826113e781612ff9565b60055460ff16611429576001600160a01b03841660009081526004602052604090205460ff166114295760405162461bcd60e51b815260040161066190615cda565b836001600160a01b0316630ffe0f1e6040518163ffffffff1660e01b8152600401600060405180830381600087803b15801561146457600080fd5b505af1158015611478573d6000803e3d6000fd5b50505050836001600160a01b031663d7f1b27c6114c16040518060400160405280601581526020017444656661756c7449737375616e63654d6f64756c6560581b8152506130ba565b6040518263ffffffff1660e01b81526004016114dd919061565a565b60206040518083038186803b1580156114f557600080fd5b505afa158015611509573d6000803e3d6000fd5b505050506040513d601f19601f8201168201806040525081019061152d919061525f565b6115495760405162461bcd60e51b815260040161066190615b85565b6060846001600160a01b031663b2494df36040518163ffffffff1660e01b815260040160006040518083038186803b15801561158457600080fd5b505afa158015611598573d6000803e3d6000fd5b505050506040513d6000823e601f3d908101601f191682016040526115c09190810190615198565b905060005b8151811015611641578181815181106115da57fe5b60200260200101516001600160a01b031663d9b1b6e0876040518263ffffffff1660e01b815260040161160d919061565a565b600060405180830381600087803b15801561162757600080fd5b505af1925050508015611638575060015b506001016115c5565b505050505050565b6116516126db565b6002546001600160a01b0390811691161461167e5760405162461bcd60e51b815260040161066190615ca5565b600054604051631d3af8fb60e21b81526001600160a01b03909116906374ebe3ec906116ae90859060040161565a565b60206040518083038186803b1580156116c657600080fd5b505afa1580156116da573d6000803e3d6000fd5b505050506040513d601f19601f820116820180604052508101906116fe919061525f565b8061172157506001600160a01b03821660009081526004602052604090205460ff165b61173d5760405162461bcd60e51b815260040161066190615c7b565b6001600160a01b038216600081815260046020526040808220805460ff191685151590811790915590519092917f2035981b48691b10f6ac65174e570b4d0a8a889ae01bef3e5e7759ff9444f0c491a35050565b7f000000000000000000000000000000000000000000000000000000000000000081565b6060806060846001600160a01b03166399d50d5d6040518163ffffffff1660e01b815260040160006040518083038186803b1580156117f357600080fd5b505afa158015611807573d6000803e3d6000fd5b505050506040513d6000823e601f3d908101601f1916820160405261182f9190810190615198565b6001600160a01b0386166000908152600360205260409020549091501561187657600061185e868660016120e6565b905061186b8683836130d1565b935093505050611888565b611882858260006130d1565b92509250505b9250929050565b6060600061190c836001600160a01b03166318160ddd6040518163ffffffff1660e01b815260040160206040518083038186803b1580156118cf57600080fd5b505afa1580156118e3573d6000803e3d6000fd5b505050506040513d601f19601f82011682018060405250810190611907919061544d565b61327a565b6001600160a01b03841660009081526003602052604090205490915060609067ffffffffffffffff8111801561194157600080fd5b5060405190808252806020026020018201604052801561197b57816020015b611968615044565b8152602001906001900390816119605790505b50905060005b6001600160a01b038516600090815260036020526040902054811015611b8a57604051806060016040528060036000886001600160a01b03166001600160a01b0316815260200190815260200160002083815481106119dc57fe5b9060005260206000200160009054906101000a90046001600160a01b03166001600160a01b03168152602001611aff857f00000000000000000000000000000000000000000000000000000000000000006001600160a01b031663b3bd6e128a600360008d6001600160a01b03166001600160a01b031681526020019081526020016000208881548110611a6c57fe5b6000918252602090912001546040516001600160e01b031960e085901b168152611aa392916001600160a01b03169060040161566e565b60206040518083038186803b158015611abb57600080fd5b505afa158015611acf573d6000803e3d6000fd5b505050506040513d601f19601f82011682018060405250810190611af3919061544d565b9063ffffffff61329f16565b8152602001611b68857f00000000000000000000000000000000000000000000000000000000000000006001600160a01b0316637a5b45a08a600360008d6001600160a01b03166001600160a01b031681526020019081526020016000208881548110611a6c57fe5b815250828281518110611b7757fe5b6020908102919091010152600101611981565b509392505050565b60046020526000908152604090205460ff1681565b611baf6126db565b6002546001600160a01b03908116911614611bdc5760405162461bcd60e51b815260040161066190615ca5565b6001600160a01b038116611c025760405162461bcd60e51b8152600401610661906159b4565b6002546040516001600160a01b038084169216907f8be0079c531659141344cd1fd0a4f28419497f9722a3daafe3b4186f6b6457e090600090a3600280546001600160a01b0319166001600160a01b0392909216919091179055565b60026001541415611c815760405162461bcd60e51b815260040161066190615fbc565b600260015581611c9081612427565b60008211611cb05760405162461bcd60e51b815260040161066190615e0f565b6000836001600160a01b03166318160ddd6040518163ffffffff1660e01b815260040160206040518083038186803b158015611ceb57600080fd5b505afa158015611cff573d6000803e3d6000fd5b505050506040513d601f19601f82011682018060405250810190611d23919061544d565b11611d405760405162461bcd60e51b815260040161066190615c4d565b61073383836132c9565b6000546001600160a01b031681565b6060806060846001600160a01b03166399d50d5d6040518163ffffffff1660e01b815260040160006040518083038186803b158015611d9757600080fd5b505afa158015611dab573d6000803e3d6000fd5b505050506040513d6000823e601f3d908101601f19168201604052611dd39190810190615198565b6001600160a01b0386166000908152600360205260409020549091501561187657600061185e86866001612e11565b6002604051631ade272960e11b81526001600160a01b038316906335bc4e5290611e3090339060040161565a565b60206040518083038186803b158015611e4857600080fd5b505afa158015611e5c573d6000803e3d6000fd5b505050506040513d601f19601f82011682018060405250810190611e80919061542e565b6002811115611e8b57fe5b14611ea85760405162461bcd60e51b815260040161066190615b0d565b6000546040516342f6e38960e01b81526001600160a01b03909116906342f6e38990611ed890339060040161565a565b60206040518083038186803b158015611ef057600080fd5b505afa158015611f04573d6000803e3d6000fd5b505050506040513d601f19601f82011682018060405250810190611f28919061525f565b611f445760405162461bcd60e51b815260040161066190615e85565b50565b600080821215611f695760405162461bcd60e51b815260040161066190615ad8565b5090565b6000821580611f7a575081155b15611f8757506000611fd3565b611fd06001611fc4670de0b6b3a7640000611fb883611fac898963ffffffff6133b416565b9063ffffffff6133ee16565b9063ffffffff61343016565b9063ffffffff61347216565b90505b92915050565b6120346001600160a01b0383167f00000000000000000000000000000000000000000000000000000000000000007f00000000000000000000000000000000000000000000000000000000000000008463ffffffff61349716565b6040516305e190a960e21b815273__$417d3a69c503e50f80ca354fced566350c$__9063178642a4906120ba906001600160a01b038616907f0000000000000000000000000000000000000000000000000000000000000000907f00000000000000000000000000000000000000000000000000000000000000009087906004016158c9565b60006040518083038186803b1580156120d257600080fd5b505af4158015611641573d6000803e3d6000fd5b60008060606120f486610f09565b90506120fe614ffe565b61210787610b81565b905060006121268260200151836040015161355e90919063ffffffff16565b905060006121766121698a6001600160a01b03166318160ddd6040518163ffffffff1660e01b815260040160206040518083038186803b1580156118cf57600080fd5b839063ffffffff61329f16565b905060005b84518110156122e85760006121eb6121c58c6001600160a01b03166318160ddd6040518163ffffffff1660e01b815260040160206040518083038186803b1580156118cf57600080fd5b8784815181106121d157fe5b60200260200101516020015161329f90919063ffffffff16565b905060006122086121fb8c61327a565b839063ffffffff6135a416565b905060006122326122188d61327a565b848a878151811061222557fe5b60200260200101516135c2565b905061223c614fc9565b6122718e8a878151811061224c57fe5b60209081029190910101515161226a8660001963ffffffff612cf416565b6000613608565b9050600061227f828e6127b6565b91505060008512156122b9576122b46122a761229a8361327a565b859063ffffffff61365f16565b8c9063ffffffff61355e16565b6122d5565b6122d56122a76122c88361327a565b859063ffffffff61355e16565b9a50506001909401935061217b92505050565b50600061233361232a8b6001600160a01b03166318160ddd6040518163ffffffff1660e01b815260040160206040518083038186803b1580156118cf57600080fd5b611af38c612bb4565b9050600061236f8761236361235761234a8e61327a565b879063ffffffff6135a416565b61236361234a8f61327a565b9063ffffffff61355e16565b90506124166123806121698c61327a565b7f00000000000000000000000000000000000000000000000000000000000000006001600160a01b031663313ce5676040518163ffffffff1660e01b815260040160206040518083038186803b1580156123d957600080fd5b505afa1580156123ed573d6000803e3d6000fd5b505050506040513d601f19601f8201168201806040525081019061241191906155a4565b6136a5565b9750505050505050505b9392505050565b61243181336136c0565b61244d5760405162461bcd60e51b815260040161066190615f0c565b6124568161374e565b611f445760405162461bcd60e51b815260040161066190615935565b6040516370a0823160e01b81526000906001600160a01b037f000000000000000000000000000000000000000000000000000000000000000016906370a08231906124c190869060040161565a565b60206040518083038186803b1580156124d957600080fd5b505afa1580156124ed573d6000803e3d6000fd5b505050506040513d601f19601f82011682018060405250810190612511919061544d565b90506000612596846001600160a01b03166318160ddd6040518163ffffffff1660e01b815260040160206040518083038186803b15801561255157600080fd5b505afa158015612565573d6000803e3d6000fd5b505050506040513d601f19601f82011682018060405250810190612589919061544d565b849063ffffffff611f6d16565b90506125a28482611fd9565b61264f7f0000000000000000000000000000000000000000000000000000000000000000856001600160a01b03166318160ddd6040518163ffffffff1660e01b815260040160206040518083038186803b1580156125ff57600080fd5b505afa158015612613573d6000803e3d6000fd5b505050506040513d601f19601f82011682018060405250810190612637919061544d565b6001600160a01b03871691908563ffffffff61385216565b505050610ef37f00000000000000000000000000000000000000000000000000000000000000003061268087613998565b6040805160208101909152600081526001600160a01b0389169392919063ffffffff613b0616565b6000611fd36001600160a01b03831680600160601b6140be565b6000611fd382670de0b6b3a7640000600160601b6140be565b3390565b6126e7614fc9565b826127045760405162461bcd60e51b815260040161066190615db3565b6000856001600160a01b03166318160ddd6040518163ffffffff1660e01b815260040160206040518083038186803b15801561273f57600080fd5b505afa158015612753573d6000803e3d6000fd5b505050506040513d601f19601f82011682018060405250810190612777919061544d565b90506127ac868661279761278a8561327a565b889063ffffffff6135a416565b6127a7878663ffffffff612d5f16565b613608565b9695505050505050565b60008082156127e4576127c761506e565b6127d08561416d565b805160209091015190935091506118889050565b6127ec6150a6565b60405180610100016040528086602001516001600160a01b031681526020018660400151151581526020018660600151151581526020016128308760800151611f47565b81526020018660a001518152602001612847614284565b81526000602082018190526040918201528651905163d3a5c28560e01b815291925073__$417d3a69c503e50f80ca354fced566350c$__9163d3a5c285916128c1916001600160a01b03909116907f00000000000000000000000000000000000000000000000000000000000000009086906004016157d8565b604080518083038186803b1580156128d857600080fd5b505af41580156128ec573d6000803e3d6000fd5b505050506040513d601f19601f820116820180604052508101906118829190615492565b60008061291e60008461428a565b905060006129bc827f00000000000000000000000000000000000000000000000000000000000000006001600160a01b031663313ce5676040518163ffffffff1660e01b815260040160206040518083038186803b15801561297f57600080fd5b505afa158015612993573d6000803e3d6000fd5b505050506040513d601f19601f820116820180604052508101906129b791906155a4565b61431f565b90506129c88582612d7d565b6129f3857f00000000000000000000000000000000000000000000000000000000000000008361433a565b949350505050565b6040516359deb70960e11b81526000906001600160a01b037f0000000000000000000000000000000000000000000000000000000000000000169063b3bd6e1290612a4c908690869060040161566e565b60206040518083038186803b158015612a6457600080fd5b505afa158015612a78573d6000803e3d6000fd5b505050506040513d601f19601f82011682018060405250810190612a9c919061544d565b6001600160a01b03841660009081526003602090815260409182902080548351818402810184019094528084529394506060939091830182828015612b0a57602002820191906000526020600020905b81546001600160a01b03168152600190910190602001808311612aec575b50505050509050612b2483826143e190919063ffffffff16565b8015612b2e575081155b15612b60576001600160a01b0384166000908152600360205260409020612b5b908463ffffffff6143ee16565b610ef3565b612b70818463ffffffff6143e116565b610ef35750506001600160a01b0391821660009081526003602090815260408220805460018101825590835291200180546001600160a01b03191691909216179055565b6000807f00000000000000000000000000000000000000000000000000000000000000006001600160a01b031663f8b2cb4f846040518263ffffffff1660e01b8152600401612c03919061565a565b60206040518083038186803b158015612c1b57600080fd5b505afa158015612c2f573d6000803e3d6000fd5b505050506040513d601f19601f82011682018060405250810190612c53919061544d565b905060007f00000000000000000000000000000000000000000000000000000000000000006001600160a01b031663313ce5676040518163ffffffff1660e01b815260040160206040518083038186803b158015612cb057600080fd5b505afa158015612cc4573d6000803e3d6000fd5b505050506040513d601f19601f82011682018060405250810190612ce891906155a4565b90506129f3828261451a565b600082612d0357506000611fd3565b82600019148015612d175750600160ff1b82145b15612d345760405162461bcd60e51b815260040161066190615d08565b82820282848281612d4157fe5b0514611fd05760405162461bcd60e51b815260040161066190615d08565b6000611fd0670de0b6b3a7640000611fb8858563ffffffff6133b416565b80612d8757612e0d565b604051632ab3e8ef60e11b815273__$417d3a69c503e50f80ca354fced566350c$__90635567d1de906120ba906001600160a01b038616907f0000000000000000000000000000000000000000000000000000000000000000907f00000000000000000000000000000000000000000000000000000000000000009087906004016158c9565b5050565b6000806060612e1f86610f09565b90506000612e2d8787614535565b905060006060612e3d89856146df565b909250905060005b8451811015612f97576000612e8f6121c58c6001600160a01b03166318160ddd6040518163ffffffff1660e01b815260040160206040518083038186803b1580156118cf57600080fd5b90506000612e9f6121fb8c61327a565b9050612ea9614fc9565b612ecd8d898681518110612eb957fe5b602002602001015160000151846000613608565b90506000612eff612efa878781518110612ee357fe5b6020026020010151856135a490919063ffffffff16565b614893565b90506000612f0d838e6127b6565b915050600080861215612f3857612f33612f268361327a565b849063ffffffff61365f16565b612f51565b612f5183612f458461327a565b9063ffffffff61365f16565b9050612f83612f76612f69858c63ffffffff61329f16565b839063ffffffff61355e16565b8d9063ffffffff61355e16565b9b505060019095019450612e459350505050565b50612fa8858463ffffffff61355e16565b9450612fc6612380612fb98a61327a565b879063ffffffff61329f16565b9998505050505050505050565b612fdd82826136c0565b612e0d5760405162461bcd60e51b815260040161066190615f0c565b600054604051631d3af8fb60e21b81526001600160a01b03909116906374ebe3ec9061302990849060040161565a565b60206040518083038186803b15801561304157600080fd5b505afa158015613055573d6000803e3d6000fd5b505050506040513d601f19601f82011682018060405250810190613079919061525f565b6130955760405162461bcd60e51b815260040161066190615ec9565b61309e816148b4565b611f445760405162461bcd60e51b815260040161066190615a31565b6000806130c6836148e3565b9050612420816148ee565b6060806060845167ffffffffffffffff811180156130ee57600080fd5b50604051908082528060200260200182016040528015613118578160200160208202803683370190505b5090506060855167ffffffffffffffff8111801561313557600080fd5b5060405190808252806020026020018201604052801561315f578160200160208202803683370190505b509050600080613195887f000000000000000000000000000000000000000000000000000000000000000063ffffffff6149ab16565b91509150801561326c576040516308bafae960e21b81526000906001600160a01b038b16906322ebeba4906131f0907f000000000000000000000000000000000000000000000000000000000000000090309060040161566e565b60206040518083038186803b15801561320857600080fd5b505afa15801561321c573d6000803e3d6000fd5b505050506040513d601f19601f82011682018060405250810190613240919061544d565b9050613252888263ffffffff61365f16565b85848151811061325e57fe5b602002602001018181525050505b509197909650945050505050565b6000600160ff1b8210611f695760405162461bcd60e51b815260040161066190615e3d565b6000611fd0826132bd85670de0b6b3a764000063ffffffff612cf416565b9063ffffffff614a0e16565b6040516370a0823160e01b81526000906001600160a01b037f000000000000000000000000000000000000000000000000000000000000000016906370a082319061331890869060040161565a565b60206040518083038186803b15801561333057600080fd5b505afa158015613344573d6000803e3d6000fd5b505050506040513d601f19601f82011682018060405250810190613368919061544d565b905060006133a8846001600160a01b03166318160ddd6040518163ffffffff1660e01b815260040160206040518083038186803b15801561255157600080fd5b90506125a28482612d7d565b6000826133c357506000611fd3565b828202828482816133d057fe5b0414611fd05760405162461bcd60e51b815260040161066190615c0c565b6000611fd083836040518060400160405280601e81526020017f536166654d6174683a207375627472616374696f6e206f766572666c6f770000815250614a72565b6000611fd083836040518060400160405280601a81526020017f536166654d6174683a206469766973696f6e206279207a65726f000000000000815250614a9e565b600082820183811015611fd05760405162461bcd60e51b8152600401610661906159fa565b606082826040516024016134ac9291906156d8565b60408051601f198184030181529181526020820180516001600160e01b031663095ea7b360e01b179052516347b7819960e11b81529091506001600160a01b03861690638f6f03329061350890879060009086906004016156f1565b600060405180830381600087803b15801561352257600080fd5b505af1158015613536573d6000803e3d6000fd5b505050506040513d6000823e601f3d908101601f19168201604052611641919081019061527b565b60008282018183128015906135735750838112155b80613588575060008312801561358857508381125b611fd05760405162461bcd60e51b815260040161066190615a68565b6000611fd0670de0b6b3a76400006132bd858563ffffffff612cf416565b6000806135d5858563ffffffff6135a416565b905060006135f084602001518361329f90919063ffffffff16565b60408501519091506127ac908263ffffffff6135a416565b613610614fc9565b6040805160c0810182526001600160a01b0380881682528616602082015260008512918101829052606081018290526080810161364c86614893565b8152602001849052915050949350505050565b60008183038183128015906136745750838113155b80613689575060008312801561368957508381135b611fd05760405162461bcd60e51b815260040161066190615f43565b6000611fd08360ff8416601203600a0a63ffffffff614a0e16565b6000816001600160a01b0316836001600160a01b031663481c6a756040518163ffffffff1660e01b815260040160206040518083038186803b15801561370557600080fd5b505afa158015613719573d6000803e3d6000fd5b505050506040513d601f19601f8201168201806040525081019061373d919061517c565b6001600160a01b0316149392505050565b60008054604051631d3af8fb60e21b81526001600160a01b03909116906374ebe3ec9061377f90859060040161565a565b60206040518083038186803b15801561379757600080fd5b505afa1580156137ab573d6000803e3d6000fd5b505050506040513d601f19601f820116820180604052508101906137cf919061525f565b8015611fd357506040516335fc6c9f60e21b81526001600160a01b0383169063d7f1b27c9061380290309060040161565a565b60206040518083038186803b15801561381a57600080fd5b505afa15801561382e573d6000803e3d6000fd5b505050506040513d601f19601f82011682018060405250810190611fd3919061525f565b600080600080866001600160a01b03166370a08231896040518263ffffffff1660e01b8152600401613884919061565a565b60206040518083038186803b15801561389c57600080fd5b505afa1580156138b0573d6000803e3d6000fd5b505050506040513d601f19601f820116820180604052508101906138d4919061544d565b9050600061395c896001600160a01b03166366cb8d2f8a6040518263ffffffff1660e01b8152600401613907919061565a565b60206040518083038186803b15801561391f57600080fd5b505afa158015613933573d6000803e3d6000fd5b505050506040513d601f19601f82011682018060405250810190613957919061544d565b611f47565b9050600082156139795761397288888585614ad5565b905061397d565b5060005b6139888a8a83614b1a565b9199909850909650945050505050565b600060606139a583610f09565b90506139af614ffe565b6139b884610b81565b90506000805b8351811015613a365760006139ec6119078684815181106139db57fe5b60200260200101516000015161073c565b9050613a2b613a1e612efa83888681518110613a0457fe5b6020026020010151602001516135a490919063ffffffff16565b849063ffffffff61355e16565b9250506001016139be565b506000613aa7613a78876001600160a01b03166318160ddd6040518163ffffffff1660e01b815260040160206040518083038186803b1580156118cf57600080fd5b611af38560400151612363876020015161236389606001516123638b600001518b61355e90919063ffffffff16565b90506127ac817f00000000000000000000000000000000000000000000000000000000000000006001600160a01b031663313ce5676040518163ffffffff1660e01b815260040160206040518083038186803b1580156123d957600080fd5b8115613dfb5760405163df5e9b2960e01b81526001600160a01b0386169063df5e9b2990613b3890879060040161565a565b60206040518083038186803b158015613b5057600080fd5b505afa158015613b64573d6000803e3d6000fd5b505050506040513d601f19601f82011682018060405250810190613b88919061525f565b613c4f576040516304e3532760e41b81526001600160a01b03861690634e35327090613bb890879060040161565a565b600060405180830381600087803b158015613bd257600080fd5b505af1158015613be6573d6000803e3d6000fd5b505060405163ea0ee55960e01b81526001600160a01b038816925063ea0ee5599150613c18908790879060040161566e565b600060405180830381600087803b158015613c3257600080fd5b505af1158015613c46573d6000803e3d6000fd5b50505050613d32565b604051637d96659360e01b81526001600160a01b03861690637d96659390613c7d908790879060040161566e565b60206040518083038186803b158015613c9557600080fd5b505afa158015613ca9573d6000803e3d6000fd5b505050506040513d601f19601f82011682018060405250810190613ccd919061525f565b613d325760405163ea0ee55960e01b81526001600160a01b0386169063ea0ee55990613cff908790879060040161566e565b600060405180830381600087803b158015613d1957600080fd5b505af1158015613d2d573d6000803e3d6000fd5b505050505b6040516363a90fc160e01b81526001600160a01b038616906363a90fc190613d62908790879087906004016156b4565b600060405180830381600087803b158015613d7c57600080fd5b505af1158015613d90573d6000803e3d6000fd5b50506040516326898fe160e01b81526001600160a01b03881692506326898fe19150613dc490879087908690600401615688565b600060405180830381600087803b158015613dde57600080fd5b505af1158015613df2573d6000803e3d6000fd5b50505050610519565b805115613e1a5760405162461bcd60e51b815260040161066190615dd8565b6040516308bafae960e21b81526001600160a01b038616906322ebeba490613e48908790879060040161566e565b60206040518083038186803b158015613e6057600080fd5b505afa158015613e74573d6000803e3d6000fd5b505050506040513d601f19601f82011682018060405250810190613e98919061544d565b156105195760405163a7bdad0360e01b81526060906001600160a01b0387169063a7bdad0390613ecc90889060040161565a565b60006040518083038186803b158015613ee457600080fd5b505afa158015613ef8573d6000803e3d6000fd5b505050506040513d6000823e601f3d908101601f19168201604052613f209190810190615198565b6040516366cb8d2f60e01b81529091506001600160a01b038716906366cb8d2f90613f4f90889060040161565a565b60206040518083038186803b158015613f6757600080fd5b505afa158015613f7b573d6000803e3d6000fd5b505050506040513d601f19601f82011682018060405250810190613f9f919061544d565b158015613fad575080516001145b1561405657836001600160a01b031681600081518110613fc957fe5b60200260200101516001600160a01b031614613ff75760405162461bcd60e51b815260040161066190615bbc565b604051636f86c89760e01b81526001600160a01b03871690636f86c8979061402390889060040161565a565b600060405180830381600087803b15801561403d57600080fd5b505af1158015614051573d6000803e3d6000fd5b505050505b60405163acf3f07760e01b81526001600160a01b0387169063acf3f07790614084908890889060040161566e565b600060405180830381600087803b15801561409e57600080fd5b505af11580156140b2573d6000803e3d6000fd5b50505050505050505050565b60008080600019858709868602925082811090839003039050806140f457600084116140e957600080fd5b508290049050612420565b80841161410057600080fd5b6000848688096000868103871696879004966002600389028118808a02820302808a02820302808a02820302808a02820302808a02820302808a02909103029181900381900460010186841190950394909402919094039290920491909117919091029150509392505050565b61417561506e565b61417d6150ea565b6040518060a0016040528084602001516001600160a01b031681526020018460400151151581526020018460600151151581526020016141c08560800151611f47565b815260006020909101528351604051634496ad3760e11b815291925073__$417d3a69c503e50f80ca354fced566350c$__9163892d5a6e91614234916001600160a01b03909116907f000000000000000000000000000000000000000000000000000000000000000090869060040161586d565b60a06040518083038186803b15801561424c57600080fd5b505af4158015614260573d6000803e3d6000fd5b505050506040513d601f19601f8201168201806040525081019061242091906154b5565b60001990565b6000805460405163792aa04f60e01b815282916001600160a01b03169063792aa04f906142bd90309088906004016156d8565b60206040518083038186803b1580156142d557600080fd5b505afa1580156142e9573d6000803e3d6000fd5b505050506040513d601f19601f8201168201806040525081019061430d919061544d565b90506129f3838263ffffffff612d5f16565b6000611fd08360ff8416601203600a0a63ffffffff61343016565b801561063957610639826000809054906101000a90046001600160a01b03166001600160a01b031663469048406040518163ffffffff1660e01b815260040160206040518083038186803b15801561439157600080fd5b505afa1580156143a5573d6000803e3d6000fd5b505050506040513d601f19601f820116820180604052508101906143c9919061517c565b6001600160a01b03861691908463ffffffff614c6016565b60008061086e84846149ab565b6000806144548480548060200260200160405190810160405280929190818152602001828054801561444957602002820191906000526020600020905b81546001600160a01b0316815260019091019060200180831161442b575b5050505050846149ab565b91509150806144755760405162461bcd60e51b815260040161066190615906565b8354600019018281146144e75784818154811061448e57fe5b9060005260206000200160009054906101000a90046001600160a01b03168584815481106144b857fe5b9060005260206000200160006101000a8154816001600160a01b0302191690836001600160a01b031602179055505b848054806144f157fe5b600082815260209020810160001990810180546001600160a01b03191690550190555050505050565b6000611fd08360ff8416601203600a0a63ffffffff612cf416565b6000807f00000000000000000000000000000000000000000000000000000000000000006001600160a01b031663bba85bcf856040518263ffffffff1660e01b8152600401614584919061565a565b60606040518083038186803b15801561459c57600080fd5b505afa1580156145b0573d6000803e3d6000fd5b505050506040513d601f19601f820116820180604052508101906145d49190615465565b5050905060007f00000000000000000000000000000000000000000000000000000000000000006001600160a01b03166380f57f11866040518263ffffffff1660e01b8152600401614626919061565a565b60206040518083038186803b15801561463e57600080fd5b505afa158015614652573d6000803e3d6000fd5b505050506040513d601f19601f82011682018060405250810190614676919061544d565b905061086e6146848561327a565b6146d36146c3886001600160a01b03166318160ddd6040518163ffffffff1660e01b815260040160206040518083038186803b1580156118cf57600080fd5b611af3868663ffffffff61365f16565b9063ffffffff6135a416565b8051600090606090818167ffffffffffffffff811180156146ff57600080fd5b50604051908082528060200260200182016040528015614729578160200160208202803683370190505b509050600080805b848110156147b35761474b6119078983815181106139db57fe5b84828151811061475757fe5b602002602001018181525050600061478885838151811061477457fe5b60200260200101518a8481518110613a0457fe5b90506147966122c882614893565b93506147a8838263ffffffff61355e16565b925050600101614731565b50604051634c294e5f60e01b81526000906001600160a01b037f00000000000000000000000000000000000000000000000000000000000000001690634c294e5f90614803908c9060040161565a565b604080518083038186803b15801561481a57600080fd5b505afa15801561482e573d6000803e3d6000fd5b505050506040513d601f19601f820116820180604052508101906148529190615492565b50905060006148836148766148668c612bb4565b612363868663ffffffff61355e16565b859063ffffffff61329f16565b9a94995093975050505050505050565b600080821215611f69576148af8260001963ffffffff612cf416565b611fd3565b6040516353bae5f760e01b81526000906001600160a01b038316906353bae5f79061380290309060040161565a565b805160209091012090565b600080548190614906906001600160a01b0316614da2565b6001600160a01b031663e6d642c530856040518363ffffffff1660e01b81526004016149339291906156d8565b60206040518083038186803b15801561494b57600080fd5b505afa15801561495f573d6000803e3d6000fd5b505050506040513d601f19601f82011682018060405250810190614983919061517c565b90506001600160a01b038116611fd35760405162461bcd60e51b815260040161066190615aa9565b81516000908190815b818110156149fe57846001600160a01b03168682815181106149d257fe5b60200260200101516001600160a01b031614156149f6579250600191506118889050565b6001016149b4565b5060001995600095509350505050565b600081614a2d5760405162461bcd60e51b815260040161066190615f87565b81600019148015614a415750600160ff1b83145b15614a5e5760405162461bcd60e51b815260040161066190615b44565b6000828481614a6957fe5b05949350505050565b60008184841115614a965760405162461bcd60e51b815260040161066191906158f3565b505050900390565b60008183614abf5760405162461bcd60e51b815260040161066191906158f3565b506000838581614acb57fe5b0495945050505050565b600080614af8614aeb848863ffffffff612d5f16565b869063ffffffff6133ee16565b90506127ac86614b0e868463ffffffff6133ee16565b9063ffffffff614e2116565b6000614b268484614e3f565b905080158015614b365750600082115b15614bad57614b458484614ec6565b614ba8576040516304e3532760e41b81526001600160a01b03851690634e35327090614b7590869060040161565a565b600060405180830381600087803b158015614b8f57600080fd5b505af1158015614ba3573d6000803e3d6000fd5b505050505b614c2a565b808015614bb8575081155b15614c2a57614bc78484614ec6565b614c2a57604051636f86c89760e01b81526001600160a01b03851690636f86c89790614bf790869060040161565a565b600060405180830381600087803b158015614c1157600080fd5b505af1158015614c25573d6000803e3d6000fd5b505050505b836001600160a01b0316632ba57d1784614c438561327a565b6040518363ffffffff1660e01b81526004016106059291906156d8565b8015610ef3576040516370a0823160e01b81526000906001600160a01b038516906370a0823190614c9590889060040161565a565b60206040518083038186803b158015614cad57600080fd5b505afa158015614cc1573d6000803e3d6000fd5b505050506040513d601f19601f82011682018060405250810190614ce5919061544d565b9050614cf385858585614f52565b6040516370a0823160e01b81526000906001600160a01b038616906370a0823190614d2290899060040161565a565b60206040518083038186803b158015614d3a57600080fd5b505afa158015614d4e573d6000803e3d6000fd5b505050506040513d601f19601f82011682018060405250810190614d72919061544d565b9050614d84828463ffffffff6133ee16565b81146116415760405162461bcd60e51b815260040161066190615d4f565b6040516373b2e76b60e11b81526000906001600160a01b0383169063e765ced690614dd190849060040161601e565b60206040518083038186803b158015614de957600080fd5b505afa158015614dfd573d6000803e3d6000fd5b505050506040513d601f19601f82011682018060405250810190611fd3919061517c565b6000611fd082611fb885670de0b6b3a764000063ffffffff6133b416565b600080836001600160a01b03166366cb8d2f846040518263ffffffff1660e01b8152600401614e6e919061565a565b60206040518083038186803b158015614e8657600080fd5b505afa158015614e9a573d6000803e3d6000fd5b505050506040513d601f19601f82011682018060405250810190614ebe919061544d565b139392505050565b600080836001600160a01b031663a7bdad03846040518263ffffffff1660e01b8152600401614ef5919061565a565b60006040518083038186803b158015614f0d57600080fd5b505afa158015614f21573d6000803e3d6000fd5b505050506040513d6000823e601f3d908101601f19168201604052614f499190810190615198565b51119392505050565b8015610ef35760608282604051602401614f6d9291906156d8565b60408051601f198184030181529181526020820180516001600160e01b031663a9059cbb60e01b179052516347b7819960e11b81529091506001600160a01b03861690638f6f03329061350890879060009086906004016156f1565b6040805160c081018252600080825260208201819052918101829052606081018290526080810182905260a081019190915290565b6040518060800160405280600081526020016000815260200160008152602001600081525090565b5080546000825590600052602060002090810190611f449190615118565b604051806060016040528060006001600160a01b0316815260200160008152602001600081525090565b6040518060a001604052806000815260200160008152602001600081526020016000815260200160006001600160a01b031681525090565b6040805161010081018252600080825260208201819052918101829052606081018290526080810182905260a0810182905260c0810182905260e081019190915290565b6040805160a08101825260008082526020820181905291810182905260608101829052608081019190915290565b610f0691905b80821115611f69576000815560010161511e565b8051611fd381616097565b805161ffff81168114611fd357600080fd5b805160ff81168114611fd357600080fd5b600060208284031215615171578081fd5b8135611fd081616097565b60006020828403121561518d578081fd5b8151611fd081616097565b600060208083850312156151aa578182fd5b825167ffffffffffffffff808211156151c1578384fd5b81850186601f8201126151d2578485fd5b80519250818311156151e2578485fd5b83830291506151f2848301616044565b8381528481019082860184840187018a101561520c578788fd5b8794505b85851015615236576152228a82615132565b835260019490940193918601918601615210565b5098975050505050505050565b600060208284031215615254578081fd5b8135611fd0816160ac565b600060208284031215615270578081fd5b8151611fd0816160ac565b60006020828403121561528c578081fd5b815167ffffffffffffffff808211156152a3578283fd5b81840185601f8201126152b4578384fd5b80519250818311156152c4578384fd5b6152d7601f8401601f1916602001616044565b91508282528560208483010111156152ed578384fd5b6152fe83602084016020840161606b565b50949350505050565b6000806000806080858703121561531c578283fd5b843561532781616097565b9350602085013561533781616097565b93969395505050506040820135916060013590565b6000806040838503121561535e578182fd5b823561536981616097565b91506020830135615379816160ac565b809150509250929050565b60008060408385031215615396578182fd5b82356153a181616097565b9150602083013561537981616097565b600080604083850312156153c3578182fd5b82356153ce81616097565b946020939093013593505050565b600080600080608085870312156153f1578182fd5b84356153fc81616097565b935060208501359250604085013561541381616097565b91506060850135615423816160ac565b939692955090935050565b60006020828403121561543f578081fd5b815160038110611fd0578182fd5b60006020828403121561545e578081fd5b5051919050565b600080600060608486031215615479578081fd5b8351925060208401519150604084015190509250925092565b600080604083850312156154a4578182fd5b505080516020909101519092909150565b600060a082840312156154c6578081fd5b6154d060a0616044565b82518152602083015160208201526040830151604082015260608301516060820152608083015161550081616097565b60808201529392505050565b600080600080600080600060e0888a031215615526578485fd5b875161553181616097565b8097505060208801518060020b8114615548578586fd5b95506155578960408a0161513d565b94506155668960608a0161513d565b93506155758960808a0161513d565b92506155848960a08a0161514f565b915060c0880151615594816160ac565b8091505092959891949750929550565b6000602082840312156155b5578081fd5b611fd0838361514f565b6001600160a01b03169052565b6000815180845260208085019450808401835b838110156155fb578151875295820195908201906001016155df565b509495945050505050565b15159052565b6000815180845261562481602086016020860161606b565b601f01601f19169290920160200192915050565b80516001600160a01b0316825260208082015190830152604090810151910152565b6001600160a01b0391909116815260200190565b6001600160a01b0392831681529116602082015260400190565b6001600160a01b0384811682528316602082015260606040820181905260009061086e9083018461560c565b6001600160a01b039384168152919092166020820152604081019190915260600190565b6001600160a01b03929092168252602082015260400190565b600060018060a01b03851682528360208301526060604083015261086e606083018461560c565b60006040825261572b60408301856155cc565b828103602084015261086e81856155cc565b6020808252825182820181905260009190848201906040850190845b8181101561577f5761576c838551615638565b9284019260609290920191600101615759565b50909695505050505050565b6020808252825182820181905260009190848201906040850190845b8181101561577f576157ba838551615638565b92840192606092909201916001016157a7565b901515815260200190565b6001600160a01b0384811682528316602082015281516101408201906158029060408401906155bf565b60208301516158146060840182615606565b5060408301516158276080840182615606565b50606083015160a0830152608083015160c083015260a083015160e083015260c08301516158596101008401826155bf565b5060e0830151610120830152949350505050565b600060e08201905060018060a01b0380861683528085166020840152808451166040840152602084015115156060840152604084015115156080840152606084015160a08401528060808501511660c084015250949350505050565b6001600160a01b039485168152928416602084015292166040820152606081019190915260800190565b600060208252611fd0602083018461560c565b60208082526015908201527420b2323932b9b9903737ba1034b71030b93930bc9760591b604082015260600190565b60208082526028908201527f4d75737420626520612076616c696420616e6420696e697469616c697a65642060408201526729b2ba2a37b5b2b760c11b606082015260800190565b6020808252601c908201527f436f6c6c61746572616c2062616c616e63652072656d61696e696e6700000000604082015260600190565b60208082526026908201527f4f776e61626c653a206e6577206f776e657220697320746865207a65726f206160408201526564647265737360d01b606082015260800190565b6020808252601b908201527f536166654d6174683a206164646974696f6e206f766572666c6f770000000000604082015260600190565b6020808252601e908201527f4d7573742062652070656e64696e6720696e697469616c697a6174696f6e0000604082015260600190565b60208082526021908201527f5369676e6564536166654d6174683a206164646974696f6e206f766572666c6f6040820152607760f81b606082015260800190565b60208082526015908201527426bab9ba103132903b30b634b21030b230b83a32b960591b604082015260600190565b6020808252818101527f53616665436173743a2076616c7565206d75737420626520706f736974697665604082015260600190565b60208082526018908201527f4f6e6c7920746865206d6f64756c652063616e2063616c6c0000000000000000604082015260600190565b60208082526021908201527f5369676e6564536166654d6174683a206469766973696f6e206f766572666c6f6040820152607760f81b606082015260800190565b60208082526018908201527f49737375616e6365206e6f7420696e697469616c697a65640000000000000000604082015260600190565b60208082526030908201527f45787465726e616c20706f736974696f6e73206d757374206265203020746f2060408201526f1c995b5bdd994818dbdb5c1bdb995b9d60821b606082015260800190565b60208082526021908201527f536166654d6174683a206d756c7469706c69636174696f6e206f766572666c6f6040820152607760f81b606082015260800190565b6020808252601490820152730536574546f6b656e20737570706c7920697320360641b604082015260600190565b60208082526010908201526f24b73b30b634b21029b2ba2a37b5b2b760811b604082015260600190565b6020808252818101527f4f776e61626c653a2063616c6c6572206973206e6f7420746865206f776e6572604082015260600190565b6020808252601490820152732737ba1030b63637bbb2b21029b2ba2a37b5b2b760611b604082015260600190565b60208082526027908201527f5369676e6564536166654d6174683a206d756c7469706c69636174696f6e206f604082015266766572666c6f7760c81b606082015260800190565b6020808252601d908201527f496e76616c696420706f7374207472616e736665722062616c616e6365000000604082015260600190565b60208082526013908201527204465706f73697420616d6f756e74206973203606c1b604082015260600190565b6020808252600b908201526a0416d6f756e7420697320360ac1b604082015260600190565b60208082526018908201527f5061737365642064617461206d757374206265206e756c6c0000000000000000604082015260600190565b6020808252601490820152730576974686472617720616d6f756e7420697320360641b604082015260600190565b60208082526028908201527f53616665436173743a2076616c756520646f65736e27742066697420696e2061604082015267371034b73a191a9b60c11b606082015260800190565b60208082526024908201527f4d6f64756c65206d75737420626520656e61626c6564206f6e20636f6e74726f604082015263363632b960e11b606082015260800190565b60208082526023908201527f4d75737420626520636f6e74726f6c6c65722d656e61626c656420536574546f60408201526235b2b760e91b606082015260800190565b6020808252601c908201527f4d7573742062652074686520536574546f6b656e206d616e6167657200000000604082015260600190565b60208082526024908201527f5369676e6564536166654d6174683a207375627472616374696f6e206f766572604082015263666c6f7760e01b606082015260800190565b6020808252818101527f5369676e6564536166654d6174683a206469766973696f6e206279207a65726f604082015260600190565b6020808252601f908201527f5265656e7472616e637947756172643a207265656e7472616e742063616c6c00604082015260600190565b8151815260208083015190820152604080830151908201526060918201519181019190915260800190565b90815260200190565b938452602084019290925260408301521515606082015260800190565b60405181810167ffffffffffffffff8111828210171561606357600080fd5b604052919050565b60005b8381101561608657818101518382015260200161606e565b83811115610ef35750506000910152565b6001600160a01b0381168114611f4457600080fd5b8015158114611f4457600080fdfea2646970667358221220eda2e4e2bc87e0fdb6667d617c5b2b5f97b14b0bf182c3868ddd62c79cf0694a64736f6c634300060a0033",
  "linkReferences": {
    "contracts/protocol/integration/lib/PerpV2.sol": {
      "PerpV2": [
        {
          "length": 20,
          "start": 8996
        },
        {
          "length": 20,
          "start": 11084
        },
        {
          "length": 20,
          "start": 12407
        },
        {
          "length": 20,
          "start": 17599
        }
      ]
    }
  },
  "deployedLinkReferences": {
    "contracts/protocol/integration/lib/PerpV2.sol": {
      "PerpV2": [
        {
          "length": 20,
          "start": 8259
        },
        {
          "length": 20,
          "start": 10347
        },
        {
          "length": 20,
          "start": 11670
        },
        {
          "length": 20,
          "start": 16862
        }
      ]
    }
  }
}