{
  "_format": "hh-sol-artifact-1",
  "contractName": "PerpV2LeverageModule",
  "sourceName": "contracts/protocol/modules/PerpV2LeverageModule.sol",
  "abi": [
    {
      "inputs": [
        {
          "internalType": "contract IController",
          "name": "_controller",
          "type": "address"
        },
        {
          "internalType": "contract IAccountBalance",
          "name": "_perpAccountBalance",
          "type": "address"
        },
        {
          "internalType": "contract IClearingHouse",
          "name": "_perpClearingHouse",
          "type": "address"
        },
        {
          "internalType": "contract IExchange",
          "name": "_perpExchange",
          "type": "address"
        },
        {
          "internalType": "contract IVault",
          "name": "_perpVault",
          "type": "address"
        },
        {
          "internalType": "contract IQuoter",
          "name": "_perpQuoter",
          "type": "address"
        },
        {
          "internalType": "contract IMarketRegistry",
          "name": "_perpMarketRegistry",
          "type": "address"
        }
      ],
      "stateMutability": "nonpayable",
      "type": "constructor"
    },
    {
      "anonymous": false,
      "inputs": [
        {
          "indexed": true,
          "internalType": "bool",
          "name": "_anySetAllowed",
          "type": "bool"
        }
      ],
      "name": "AnySetAllowedUpdated",
      "type": "event"
    },
    {
      "anonymous": false,
      "inputs": [
        {
          "indexed": true,
          "internalType": "address",
          "name": "previousOwner",
          "type": "address"
        },
        {
          "indexed": true,
          "internalType": "address",
          "name": "newOwner",
          "type": "address"
        }
      ],
      "name": "OwnershipTransferred",
      "type": "event"
    },
    {
      "anonymous": false,
      "inputs": [
        {
          "indexed": true,
          "internalType": "contract ISetToken",
          "name": "_setToken",
          "type": "address"
        },
        {
          "indexed": true,
          "internalType": "address",
          "name": "_baseToken",
          "type": "address"
        },
        {
          "indexed": false,
          "internalType": "uint256",
          "name": "_deltaBase",
          "type": "uint256"
        },
        {
          "indexed": false,
          "internalType": "uint256",
          "name": "_deltaQuote",
          "type": "uint256"
        },
        {
          "indexed": false,
          "internalType": "uint256",
          "name": "_protocolFee",
          "type": "uint256"
        },
        {
          "indexed": false,
          "internalType": "bool",
          "name": "_isBuy",
          "type": "bool"
        }
      ],
      "name": "PerpTrade",
      "type": "event"
    },
    {
      "anonymous": false,
      "inputs": [
        {
          "indexed": true,
          "internalType": "contract ISetToken",
          "name": "_setToken",
          "type": "address"
        },
        {
          "indexed": true,
          "internalType": "bool",
          "name": "_added",
          "type": "bool"
        }
      ],
      "name": "SetTokenStatusUpdated",
      "type": "event"
    },
    {
      "inputs": [
        {
          "internalType": "contract ISetToken",
          "name": "",
          "type": "address"
        }
      ],
      "name": "allowedSetTokens",
      "outputs": [
        {
          "internalType": "bool",
          "name": "",
          "type": "bool"
        }
      ],
      "stateMutability": "view",
      "type": "function"
    },
    {
      "inputs": [],
      "name": "anySetAllowed",
      "outputs": [
        {
          "internalType": "bool",
          "name": "",
          "type": "bool"
        }
      ],
      "stateMutability": "view",
      "type": "function"
    },
    {
      "inputs": [],
      "name": "collateralToken",
      "outputs": [
        {
          "internalType": "contract IERC20",
          "name": "",
          "type": "address"
        }
      ],
      "stateMutability": "view",
      "type": "function"
    },
    {
      "inputs": [
        {
          "internalType": "contract ISetToken",
          "name": "_setToken",
          "type": "address"
        },
        {
          "internalType": "uint256",
          "name": "_setTokenQuantity",
          "type": "uint256"
        },
        {
          "internalType": "contract IERC20",
          "name": "_component",
          "type": "address"
        },
        {
          "internalType": "bool",
          "name": "",
          "type": "bool"
        }
      ],
      "name": "componentIssueHook",
      "outputs": [],
      "stateMutability": "nonpayable",
      "type": "function"
    },
    {
      "inputs": [
        {
          "internalType": "contract ISetToken",
          "name": "_setToken",
          "type": "address"
        },
        {
          "internalType": "uint256",
          "name": "_setTokenQuantity",
          "type": "uint256"
        },
        {
          "internalType": "contract IERC20",
          "name": "_component",
          "type": "address"
        },
        {
          "internalType": "bool",
          "name": "",
          "type": "bool"
        }
      ],
      "name": "componentRedeemHook",
      "outputs": [],
      "stateMutability": "nonpayable",
      "type": "function"
    },
    {
      "inputs": [],
      "name": "controller",
      "outputs": [
        {
          "internalType": "contract IController",
          "name": "",
          "type": "address"
        }
      ],
      "stateMutability": "view",
      "type": "function"
    },
    {
      "inputs": [
        {
          "internalType": "contract ISetToken",
          "name": "_setToken",
          "type": "address"
        },
        {
          "internalType": "uint256",
          "name": "_collateralQuantityUnits",
          "type": "uint256"
        }
      ],
      "name": "deposit",
      "outputs": [],
      "stateMutability": "nonpayable",
      "type": "function"
    },
    {
      "inputs": [
        {
          "internalType": "contract ISetToken",
          "name": "_setToken",
          "type": "address"
        }
      ],
      "name": "getAccountInfo",
      "outputs": [
        {
          "components": [
            {
              "internalType": "int256",
              "name": "collateralBalance",
              "type": "int256"
            },
            {
              "internalType": "int256",
              "name": "owedRealizedPnl",
              "type": "int256"
            },
            {
              "internalType": "int256",
              "name": "pendingFundingPayments",
              "type": "int256"
            },
            {
              "internalType": "int256",
              "name": "netQuoteBalance",
              "type": "int256"
            }
          ],
          "internalType": "struct PerpV2LeverageModule.AccountInfo",
          "name": "accountInfo",
          "type": "tuple"
        }
      ],
      "stateMutability": "view",
      "type": "function"
    },
    {
      "inputs": [
        {
          "internalType": "contract ISetToken",
          "name": "_setToken",
          "type": "address"
        },
        {
          "internalType": "uint256",
          "name": "_setTokenQuantity",
          "type": "uint256"
        }
      ],
      "name": "getIssuanceAdjustments",
      "outputs": [
        {
          "internalType": "int256[]",
          "name": "",
          "type": "int256[]"
        },
        {
          "internalType": "int256[]",
          "name": "_",
          "type": "int256[]"
        }
      ],
      "stateMutability": "nonpayable",
      "type": "function"
    },
    {
      "inputs": [
        {
          "internalType": "contract ISetToken",
          "name": "_setToken",
          "type": "address"
        }
      ],
      "name": "getPositionInfo",
      "outputs": [
        {
          "components": [
            {
              "internalType": "address",
              "name": "baseToken",
              "type": "address"
            },
            {
              "internalType": "int256",
              "name": "baseBalance",
              "type": "int256"
            },
            {
              "internalType": "int256",
              "name": "quoteBalance",
              "type": "int256"
            }
          ],
          "internalType": "struct PerpV2LeverageModule.PositionInfo[]",
          "name": "",
          "type": "tuple[]"
        }
      ],
      "stateMutability": "view",
      "type": "function"
    },
    {
      "inputs": [
        {
          "internalType": "contract ISetToken",
          "name": "_setToken",
          "type": "address"
        },
        {
          "internalType": "uint256",
          "name": "_setTokenQuantity",
          "type": "uint256"
        }
      ],
      "name": "getRedemptionAdjustments",
      "outputs": [
        {
          "internalType": "int256[]",
          "name": "",
          "type": "int256[]"
        },
        {
          "internalType": "int256[]",
          "name": "_",
          "type": "int256[]"
        }
      ],
      "stateMutability": "nonpayable",
      "type": "function"
    },
    {
      "inputs": [
        {
          "internalType": "address",
          "name": "_baseToken",
          "type": "address"
        }
      ],
      "name": "getSpotPrice",
      "outputs": [
        {
          "internalType": "uint256",
          "name": "price",
          "type": "uint256"
        }
      ],
      "stateMutability": "view",
      "type": "function"
    },
    {
      "inputs": [
        {
          "internalType": "contract ISetToken",
          "name": "_setToken",
          "type": "address"
        }
      ],
      "name": "initialize",
      "outputs": [],
      "stateMutability": "nonpayable",
      "type": "function"
    },
    {
      "inputs": [
        {
          "internalType": "contract ISetToken",
          "name": "_setToken",
          "type": "address"
        },
        {
          "internalType": "uint256",
          "name": "_setTokenQuantity",
          "type": "uint256"
        }
      ],
      "name": "moduleIssueHook",
      "outputs": [],
      "stateMutability": "nonpayable",
      "type": "function"
    },
    {
      "inputs": [
        {
          "internalType": "contract ISetToken",
          "name": "_setToken",
          "type": "address"
        },
        {
          "internalType": "uint256",
          "name": "_setTokenQuantity",
          "type": "uint256"
        }
      ],
      "name": "moduleRedeemHook",
      "outputs": [],
      "stateMutability": "nonpayable",
      "type": "function"
    },
    {
      "inputs": [],
      "name": "owner",
      "outputs": [
        {
          "internalType": "address",
          "name": "",
          "type": "address"
        }
      ],
      "stateMutability": "view",
      "type": "function"
    },
    {
      "inputs": [],
      "name": "perpAccountBalance",
      "outputs": [
        {
          "internalType": "contract IAccountBalance",
          "name": "",
          "type": "address"
        }
      ],
      "stateMutability": "view",
      "type": "function"
    },
    {
      "inputs": [],
      "name": "perpClearingHouse",
      "outputs": [
        {
          "internalType": "contract IClearingHouse",
          "name": "",
          "type": "address"
        }
      ],
      "stateMutability": "view",
      "type": "function"
    },
    {
      "inputs": [],
      "name": "perpExchange",
      "outputs": [
        {
          "internalType": "contract IExchange",
          "name": "",
          "type": "address"
        }
      ],
      "stateMutability": "view",
      "type": "function"
    },
    {
      "inputs": [],
      "name": "perpMarketRegistry",
      "outputs": [
        {
          "internalType": "contract IMarketRegistry",
          "name": "",
          "type": "address"
        }
      ],
      "stateMutability": "view",
      "type": "function"
    },
    {
      "inputs": [],
      "name": "perpQuoter",
      "outputs": [
        {
          "internalType": "contract IQuoter",
          "name": "",
          "type": "address"
        }
      ],
      "stateMutability": "view",
      "type": "function"
    },
    {
      "inputs": [],
      "name": "perpVault",
      "outputs": [
        {
          "internalType": "contract IVault",
          "name": "",
          "type": "address"
        }
      ],
      "stateMutability": "view",
      "type": "function"
    },
    {
      "inputs": [
        {
          "internalType": "contract ISetToken",
          "name": "",
          "type": "address"
        },
        {
          "internalType": "uint256",
          "name": "",
          "type": "uint256"
        }
      ],
      "name": "positions",
      "outputs": [
        {
          "internalType": "address",
          "name": "",
          "type": "address"
        }
      ],
      "stateMutability": "view",
      "type": "function"
    },
    {
      "inputs": [
        {
          "internalType": "contract ISetToken",
          "name": "_setToken",
          "type": "address"
        },
        {
          "internalType": "contract IDebtIssuanceModule",
          "name": "_debtIssuanceModule",
          "type": "address"
        }
      ],
      "name": "registerToModule",
      "outputs": [],
      "stateMutability": "nonpayable",
      "type": "function"
    },
    {
      "inputs": [],
      "name": "removeModule",
      "outputs": [],
      "stateMutability": "nonpayable",
      "type": "function"
    },
    {
      "inputs": [],
      "name": "renounceOwnership",
      "outputs": [],
      "stateMutability": "nonpayable",
      "type": "function"
    },
    {
      "inputs": [
        {
          "internalType": "contract ISetToken",
          "name": "_setToken",
          "type": "address"
        },
        {
          "internalType": "address",
          "name": "_baseToken",
          "type": "address"
        },
        {
          "internalType": "int256",
          "name": "_baseQuantityUnits",
          "type": "int256"
        },
        {
          "internalType": "uint256",
          "name": "_receiveQuoteQuantityUnits",
          "type": "uint256"
        }
      ],
      "name": "trade",
      "outputs": [],
      "stateMutability": "nonpayable",
      "type": "function"
    },
    {
      "inputs": [
        {
          "internalType": "address",
          "name": "newOwner",
          "type": "address"
        }
      ],
      "name": "transferOwnership",
      "outputs": [],
      "stateMutability": "nonpayable",
      "type": "function"
    },
    {
      "inputs": [
        {
          "internalType": "contract ISetToken",
          "name": "_setToken",
          "type": "address"
        },
        {
          "internalType": "bool",
          "name": "_status",
          "type": "bool"
        }
      ],
      "name": "updateAllowedSetToken",
      "outputs": [],
      "stateMutability": "nonpayable",
      "type": "function"
    },
    {
      "inputs": [
        {
          "internalType": "bool",
          "name": "_anySetAllowed",
          "type": "bool"
        }
      ],
      "name": "updateAnySetAllowed",
      "outputs": [],
      "stateMutability": "nonpayable",
      "type": "function"
    },
    {
      "inputs": [
        {
          "internalType": "contract ISetToken",
          "name": "_setToken",
          "type": "address"
        },
        {
          "internalType": "uint256",
          "name": "_collateralQuantityUnits",
          "type": "uint256"
        }
      ],
      "name": "withdraw",
      "outputs": [],
      "stateMutability": "nonpayable",
      "type": "function"
    }
  ],
  "bytecode": "0x6101406040523480156200001257600080fd5b50604051620059bc380380620059bc8339810160408190526200003591620000f2565b600080546001600160a01b0319166001600160a01b038916178155600180556200005e620000ee565b600280546001600160a01b0319166001600160a01b038316908117909155604051919250906000907f8be0079c531659141344cd1fd0a4f28419497f9722a3daafe3b4186f6b6457e0908290a3506001600160601b0319606096871b811660805294861b851660a05292851b841660c05290841b831660e052831b82166101005290911b166101205250620001b5565b3390565b600080600080600080600060e0888a0312156200010d578283fd5b87516200011a816200019c565b60208901519097506200012d816200019c565b604089015190965062000140816200019c565b606089015190955062000153816200019c565b608089015190945062000166816200019c565b60a089015190935062000179816200019c565b60c08901519092506200018c816200019c565b8091505092959891949750929550565b6001600160a01b0381168114620001b257600080fd5b50565b60805160601c60a05160601c60c05160601c60e05160601c6101005160601c6101205160601c61575662000266600039806107365280611341525080610db652806139d852508061089252806111415280611e2d5280611e96528061298b5280612c14525080610ad45280610d7a5280613dc652508061086e52806125f352508061040f5280610a2c5280610b7552806117bc528061187f52806127e75280613d265280613fbf52506157566000f3fe608060405234801561001057600080fd5b50600436106101e55760003560e01c8063b1dd4d921161010f578063cb44f343116100a2578063f3fef3a311610071578063f3fef3a3146103bf578063f77c4791146103d2578063fbd1d25a146103da578063fc62d9fe146103fa576101e5565b8063cb44f34314610370578063d23cd56414610378578063ee78244f14610399578063f2fde38b146103ac576101e5565b8063c153dd07116100de578063c153dd0714610324578063c1be667714610337578063c4d66de81461034a578063c690a74c1461035d576101e5565b8063b1dd4d92146102ec578063b2016bd414610301578063b2ad61d514610309578063c137f4d714610311576101e5565b8063616516f2116101875780637b510fe8116101565780637b510fe8146102b4578063847ef08d146102d45780638da5cb5b146102dc5780639f71e269146102e4576101e5565b8063616516f2146102895780636273010d146102915780636aecef9214610299578063715018a6146102ac576101e5565b806347e7ef24116101c357806347e7ef24146102305780635199e418146102435780635b136512146102565780635cd9e01914610269576101e5565b80630b23207c146101ea5780630fb96b21146102085780633fe6106b1461021d575b600080fd5b6101f261040d565b6040516101ff9190614db6565b60405180910390f35b61021b610216366004614b87565b610431565b005b61021b61022b366004614b5c565b6104ee565b61021b61023e366004614b5c565b610575565b61021b6102513660046149f7565b6105c3565b61021b610264366004614b2f565b610635565b61027c610277366004614914565b610731565b6040516101ff9190615684565b6101f261086c565b6101f2610890565b61021b6102a7366004614ab2565b6108b4565b61021b61098b565b6102c76102c2366004614914565b610a0a565b6040516101ff9190615659565b61021b610c18565b6101f2610d68565b6101f2610d78565b6102f4610d9c565b6040516101ff9190614ecf565b6101f2610da5565b6101f2610db4565b61021b61031f366004614b87565b610dd8565b61021b610332366004614b5c565b610e81565b6101f2610345366004614b5c565b610e99565b61021b610358366004614914565b610ece565b61021b61036b366004614af7565b6111f7565b6101f261133f565b61038b610386366004614b5c565b611363565b6040516101ff929190614e48565b6102f46103a7366004614914565b611582565b61021b6103ba366004614914565b611597565b61021b6103cd366004614b5c565b61164e565b6101f26116ac565b6103ed6103e8366004614914565b6116bb565b6040516101ff9190614e6d565b61038b610408366004614b5c565b61198d565b7f000000000000000000000000000000000000000000000000000000000000000081565b8361043b81611b70565b6040516308bafae960e21b81526000906001600160a01b038716906322ebeba49061046c9087903090600401614dca565b60206040518083038186803b15801561048457600080fd5b505afa158015610498573d6000803e3d6000fd5b505050506040513d601f19601f820116820180604052508101906104bc9190614bf8565b905060006104d96104cc83611cb5565b879063ffffffff611cdb16565b90506104e58782611d0e565b50505050505050565b816104f881611b70565b600061050684846000611fd7565b6003546040516363a90fc160e01b81529192506001600160a01b03808716926363a90fc19261053d92169030908690600401614de4565b600060405180830381600087803b15801561055757600080fd5b505af115801561056b573d6000803e3d6000fd5b5050505050505050565b600260015414156105a15760405162461bcd60e51b815260040161059890615622565b60405180910390fd5b6002600155816105b081612359565b6105ba8383611d0e565b50506001805550565b6105cb6123a4565b6002546001600160a01b039081169116146105f85760405162461bcd60e51b815260040161059890615329565b6006805460ff19168215159081179091556040517f563e1633136cdd43b8793897cb53ba2a9e31c18b3ae0b6827fbbb03b9902e6c690600090a250565b8161063f81612359565b6040516335fc6c9f60e21b81526001600160a01b0384169063d7f1b27c9061066b908590600401614db6565b60206040518083038186803b15801561068357600080fd5b505afa158015610697573d6000803e3d6000fd5b505050506040513d601f19601f820116820180604052508101906106bb9190614a13565b6106d75760405162461bcd60e51b815260040161059890615287565b6040516306cd8db760e51b81526001600160a01b0383169063d9b1b6e090610703908690600401614db6565b600060405180830381600087803b15801561071d57600080fd5b505af11580156104e5573d6000803e3d6000fd5b6000807f00000000000000000000000000000000000000000000000000000000000000006001600160a01b031663bbe4f6db846040518263ffffffff1660e01b81526004016107809190614db6565b60206040518083038186803b15801561079857600080fd5b505afa1580156107ac573d6000803e3d6000fd5b505050506040513d601f19601f820116820180604052508101906107d09190614930565b90506000816001600160a01b0316633850c7bd6040518163ffffffff1660e01b815260040160e06040518083038186803b15801561080d57600080fd5b505afa158015610821573d6000803e3d6000fd5b505050506040513d601f19601f820116820180604052508101906108459190614c8a565b50505050505090506000610858826123a8565b9050610863816123c2565b95945050505050565b7f000000000000000000000000000000000000000000000000000000000000000081565b7f000000000000000000000000000000000000000000000000000000000000000081565b600260015414156108d75760405162461bcd60e51b815260040161059890615622565b6002600155836108e681612359565b6108ee61477d565b6108fc8686868660016123db565b905060008061090c836000612512565b91509150600061091c8983612678565b905061092889896127cd565b876001600160a01b0316896001600160a01b03167f1f102d5a81167c2f9aa96170817b7c509338d0f4a866a7648908b6ae5bd0926385858560008d13604051610974949392919061568d565b60405180910390a350506001805550505050505050565b6109936123a4565b6002546001600160a01b039081169116146109c05760405162461bcd60e51b815260040161059890615329565b6002546040516000916001600160a01b0316907f8be0079c531659141344cd1fd0a4f28419497f9722a3daafe3b4186f6b6457e0908390a3600280546001600160a01b0319169055565b610a126147b2565b60405163c5bba90f60e01b81526000906001600160a01b037f0000000000000000000000000000000000000000000000000000000000000000169063c5bba90f90610a61908690600401614db6565b604080518083038186803b158015610a7857600080fd5b505afa158015610a8c573d6000803e3d6000fd5b505050506040513d601f19601f82011682018060405250810190610ab09190614c10565b5090506040518060800160405280610ac785612986565b81526020018281526020017f00000000000000000000000000000000000000000000000000000000000000006001600160a01b03166380f57f11866040518263ffffffff1660e01b8152600401610b1e9190614db6565b60206040518083038186803b158015610b3657600080fd5b505afa158015610b4a573d6000803e3d6000fd5b505050506040513d601f19601f82011682018060405250810190610b6e9190614bf8565b81526020017f00000000000000000000000000000000000000000000000000000000000000006001600160a01b0316638227bc3e866040518263ffffffff1660e01b8152600401610bbf9190614db6565b60206040518083038186803b158015610bd757600080fd5b505afa158015610beb573d6000803e3d6000fd5b505050506040513d601f19601f82011682018060405250810190610c0f9190614bf8565b90529392505050565b33610c228161237f565b33610c2c81612986565b15610c495760405162461bcd60e51b81526004016105989061507f565b6001600160a01b0381166000908152600460205260408120610c6a916147da565b6060816001600160a01b031663b2494df36040518163ffffffff1660e01b815260040160006040518083038186803b158015610ca557600080fd5b505afa158015610cb9573d6000803e3d6000fd5b505050506040513d6000823e601f3d908101601f19168201604052610ce1919081019061494c565b905060005b8151811015610d6257818181518110610cfb57fe5b60200260200101516001600160a01b031663e0799620846040518263ffffffff1660e01b8152600401610d2e9190614db6565b600060405180830381600087803b158015610d4857600080fd5b505af1925050508015610d59575060015b50600101610ce6565b50505050565b6002546001600160a01b03165b90565b7f000000000000000000000000000000000000000000000000000000000000000081565b60065460ff1681565b6003546001600160a01b031681565b7f000000000000000000000000000000000000000000000000000000000000000081565b83610de281611b70565b6040516308bafae960e21b81526000906001600160a01b038716906322ebeba490610e139087903090600401614dca565b60206040518083038186803b158015610e2b57600080fd5b505afa158015610e3f573d6000803e3d6000fd5b505050506040513d601f19601f82011682018060405250810190610e639190614bf8565b90506000610e736104cc83611cb5565b90506104e587826000612ac3565b81610e8b81611b70565b600061050684846000612d95565b60046020528160005260406000208181548110610eb257fe5b6000918252602090912001546001600160a01b03169150829050565b8033610eda8282612f5a565b82610ee481612f84565b60065460ff16610f26576001600160a01b03841660009081526005602052604090205460ff16610f265760405162461bcd60e51b81526004016105989061535e565b836001600160a01b0316630ffe0f1e6040518163ffffffff1660e01b8152600401600060405180830381600087803b158015610f6157600080fd5b505af1158015610f75573d6000803e3d6000fd5b50505050836001600160a01b031663d7f1b27c610fbe6040518060400160405280601581526020017444656661756c7449737375616e63654d6f64756c6560581b815250613045565b6040518263ffffffff1660e01b8152600401610fda9190614db6565b60206040518083038186803b158015610ff257600080fd5b505afa158015611006573d6000803e3d6000fd5b505050506040513d601f19601f8201168201806040525081019061102a9190614a13565b6110465760405162461bcd60e51b815260040161059890615287565b6060846001600160a01b031663b2494df36040518163ffffffff1660e01b815260040160006040518083038186803b15801561108157600080fd5b505afa158015611095573d6000803e3d6000fd5b505050506040513d6000823e601f3d908101601f191682016040526110bd919081019061494c565b905060005b815181101561113e578181815181106110d757fe5b60200260200101516001600160a01b031663d9b1b6e0876040518263ffffffff1660e01b815260040161110a9190614db6565b600060405180830381600087803b15801561112457600080fd5b505af1925050508015611135575060015b506001016110c2565b507f00000000000000000000000000000000000000000000000000000000000000006001600160a01b03166312803c7d6040518163ffffffff1660e01b815260040160206040518083038186803b15801561119857600080fd5b505afa1580156111ac573d6000803e3d6000fd5b505050506040513d601f19601f820116820180604052508101906111d09190614930565b600380546001600160a01b0319166001600160a01b03929092169190911790555050505050565b6111ff6123a4565b6002546001600160a01b0390811691161461122c5760405162461bcd60e51b815260040161059890615329565b600054604051631d3af8fb60e21b81526001600160a01b03909116906374ebe3ec9061125c908590600401614db6565b60206040518083038186803b15801561127457600080fd5b505afa158015611288573d6000803e3d6000fd5b505050506040513d601f19601f820116820180604052508101906112ac9190614a13565b806112cf57506001600160a01b03821660009081526005602052604090205460ff165b6112eb5760405162461bcd60e51b8152600401610598906152ff565b6001600160a01b038216600081815260056020526040808220805460ff191685151590811790915590519092917f2035981b48691b10f6ac65174e570b4d0a8a889ae01bef3e5e7759ff9444f0c491a35050565b7f000000000000000000000000000000000000000000000000000000000000000081565b6060806060846001600160a01b03166399d50d5d6040518163ffffffff1660e01b815260040160006040518083038186803b1580156113a157600080fd5b505afa1580156113b5573d6000803e3d6000fd5b505050506040513d6000823e601f3d908101601f191682016040526113dd919081019061494c565b90506060815167ffffffffffffffff811180156113f957600080fd5b50604051908082528060200260200182016040528015611423578160200160208202803683370190505b5090506060825167ffffffffffffffff8111801561144057600080fd5b5060405190808252806020026020018201604052801561146a578160200160208202803683370190505b5060035490915060009081906114909086906001600160a01b031663ffffffff61305c16565b91509150806114b15760405162461bcd60e51b8152600401610598906155a7565b6003546040516308bafae960e21b81526000916001600160a01b03808d16926322ebeba4926114e69216903090600401614dca565b60206040518083038186803b1580156114fe57600080fd5b505afa158015611512573d6000803e3d6000fd5b505050506040513d601f19601f820116820180604052508101906115369190614bf8565b905060006115468b8b6001611fd7565b9050611558818363ffffffff6130bf16565b86858151811061156457fe5b602090810291909101015250939650919450505050505b9250929050565b60056020526000908152604090205460ff1681565b61159f6123a4565b6002546001600160a01b039081169116146115cc5760405162461bcd60e51b815260040161059890615329565b6001600160a01b0381166115f25760405162461bcd60e51b8152600401610598906150b6565b6002546040516001600160a01b038084169216907f8be0079c531659141344cd1fd0a4f28419497f9722a3daafe3b4186f6b6457e090600090a3600280546001600160a01b0319166001600160a01b0392909216919091179055565b600260015414156116715760405162461bcd60e51b815260040161059890615622565b60026001558161168081612359565b600082116116a05760405162461bcd60e51b81526004016105989061542f565b6105ba83836001612ac3565b6000546001600160a01b031681565b6001600160a01b038116600090815260046020526040902054606090819067ffffffffffffffff811180156116ef57600080fd5b5060405190808252806020026020018201604052801561172957816020015b6117166147f8565b81526020019060019003908161170e5790505b50905060005b6001600160a01b03841660009081526004602052604090205481101561198657604051806060016040528060046000876001600160a01b03166001600160a01b03168152602001908152602001600020838154811061178a57fe5b60009182526020808320909101546001600160a01b0390811684528881168352600482526040909220805493909101927f00000000000000000000000000000000000000000000000000000000000000009092169163b3bd6e12918991879081106117f157fe5b6000918252602090912001546040516001600160e01b031960e085901b16815261182892916001600160a01b031690600401614dca565b60206040518083038186803b15801561184057600080fd5b505afa158015611854573d6000803e3d6000fd5b505050506040513d601f19601f820116820180604052508101906118789190614bf8565b81526020017f00000000000000000000000000000000000000000000000000000000000000006001600160a01b0316637a5b45a087600460008a6001600160a01b03166001600160a01b0316815260200190815260200160002086815481106118dd57fe5b6000918252602090912001546040516001600160e01b031960e085901b16815261191492916001600160a01b031690600401614dca565b60206040518083038186803b15801561192c57600080fd5b505afa158015611940573d6000803e3d6000fd5b505050506040513d601f19601f820116820180604052508101906119649190614bf8565b81525082828151811061197357fe5b602090810291909101015260010161172f565b5092915050565b6060806060846001600160a01b03166399d50d5d6040518163ffffffff1660e01b815260040160006040518083038186803b1580156119cb57600080fd5b505afa1580156119df573d6000803e3d6000fd5b505050506040513d6000823e601f3d908101601f19168201604052611a07919081019061494c565b90506060815167ffffffffffffffff81118015611a2357600080fd5b50604051908082528060200260200182016040528015611a4d578160200160208202803683370190505b5090506060825167ffffffffffffffff81118015611a6a57600080fd5b50604051908082528060200260200182016040528015611a94578160200160208202803683370190505b506003549091506000908190611aba9086906001600160a01b031663ffffffff61305c16565b9150915080611adb5760405162461bcd60e51b8152600401610598906155a7565b6003546040516308bafae960e21b81526000916001600160a01b03808d16926322ebeba492611b109216903090600401614dca565b60206040518083038186803b158015611b2857600080fd5b505afa158015611b3c573d6000803e3d6000fd5b505050506040513d601f19601f82011682018060405250810190611b609190614bf8565b905060006115468b8b6001612d95565b6002604051631ade272960e11b81526001600160a01b038316906335bc4e5290611b9e903390600401614db6565b60206040518083038186803b158015611bb657600080fd5b505afa158015611bca573d6000803e3d6000fd5b505050506040513d601f19601f82011682018060405250810190611bee9190614bd9565b6002811115611bf957fe5b14611c165760405162461bcd60e51b81526004016105989061520f565b6000546040516342f6e38960e01b81526001600160a01b03909116906342f6e38990611c46903390600401614db6565b60206040518083038186803b158015611c5e57600080fd5b505afa158015611c72573d6000803e3d6000fd5b505050506040513d601f19601f82011682018060405250810190611c969190614a13565b611cb25760405162461bcd60e51b8152600401610598906154a5565b50565b600080821215611cd75760405162461bcd60e51b8152600401610598906151da565b5090565b6000611d05670de0b6b3a7640000611cf9858563ffffffff61310516565b9063ffffffff61313f16565b90505b92915050565b6003546040516370a0823160e01b81526000916001600160a01b0316906370a0823190611d3f908690600401614db6565b60206040518083038186803b158015611d5757600080fd5b505afa158015611d6b573d6000803e3d6000fd5b505050506040513d601f19601f82011682018060405250810190611d8f9190614bf8565b90506000611e14846001600160a01b03166318160ddd6040518163ffffffff1660e01b815260040160206040518083038186803b158015611dcf57600080fd5b505afa158015611de3573d6000803e3d6000fd5b505050506040513d601f19601f82011682018060405250810190611e079190614bf8565b849063ffffffff61318116565b600354909150611e58906001600160a01b0386811691167f00000000000000000000000000000000000000000000000000000000000000008463ffffffff6131d816565b6003546040516305e190a960e21b815273__$417d3a69c503e50f80ca354fced566350c$__9163178642a491611ec4916001600160a01b03808a16927f000000000000000000000000000000000000000000000000000000000000000092909116908790600401614fcb565b60006040518083038186803b158015611edc57600080fd5b505af4158015611ef0573d6000803e3d6000fd5b50505050611f96600360009054906101000a90046001600160a01b0316856001600160a01b03166318160ddd6040518163ffffffff1660e01b815260040160206040518083038186803b158015611f4657600080fd5b505afa158015611f5a573d6000803e3d6000fd5b505050506040513d601f19601f82011682018060405250810190611f7e9190614bf8565b6001600160a01b03871691908563ffffffff6132a716565b50506003546001600160a01b0380871692506363a90fc1911630611fb9886133ed565b6040518463ffffffff1660e01b815260040161053d93929190614de4565b6000806060611fe5866116bb565b9050611fef6147b2565b611ff887610a0a565b905060006120178260200151836040015161355a90919063ffffffff16565b905060006120a46120978a6001600160a01b03166318160ddd6040518163ffffffff1660e01b815260040160206040518083038186803b15801561205a57600080fd5b505afa15801561206e573d6000803e3d6000fd5b505050506040513d601f19601f820116820180604052508101906120929190614bf8565b6135a0565b839063ffffffff6135c516565b905060005b84518110156122195760006121196120f38c6001600160a01b03166318160ddd6040518163ffffffff1660e01b815260040160206040518083038186803b15801561205a57600080fd5b8784815181106120ff57fe5b6020026020010151602001516135c590919063ffffffff16565b905060006121366121298c6135a0565b839063ffffffff6135ef16565b905060006121606121468d6135a0565b848a878151811061215357fe5b602002602001015161360d565b905061216a61477d565b6121a08e8a878151811061217a57fe5b6020908102919091010151516121988660001963ffffffff61365316565b6000806123db565b905060006121ae828e612512565b915050600085126121e9576121e26121d56121c8836135a0565b859063ffffffff61355a16565b8c9063ffffffff61355a16565b9a50612208565b6122056121d56121f8836135a0565b859063ffffffff6130bf16565b9a505b5050600190930192506120a9915050565b50600061227061225b8b6001600160a01b03166318160ddd6040518163ffffffff1660e01b815260040160206040518083038186803b15801561205a57600080fd5b6122648c612986565b9063ffffffff6135c516565b905060006122ac876122a06122946122878e6135a0565b879063ffffffff6135ef16565b6122a06122878f6135a0565b9063ffffffff61355a16565b90506123486122bd6120978c6135a0565b600360009054906101000a90046001600160a01b03166001600160a01b031663313ce5676040518163ffffffff1660e01b815260040160206040518083038186803b15801561230b57600080fd5b505afa15801561231f573d6000803e3d6000fd5b505050506040513d601f19601f820116820180604052508101906123439190614d22565b6136be565b9750505050505050505b9392505050565b61236381336136d9565b61237f5760405162461bcd60e51b81526004016105989061552c565b61238881613767565b611cb25760405162461bcd60e51b815260040161059890615037565b3390565b6000611d086001600160a01b03831680600160601b61386b565b6000611d0882670de0b6b3a7640000600160601b61386b565b6123e361477d565b6000866001600160a01b03166318160ddd6040518163ffffffff1660e01b815260040160206040518083038186803b15801561241e57600080fd5b505afa158015612432573d6000803e3d6000fd5b505050506040513d601f19601f820116820180604052508101906124569190614bf8565b9050821561248c5761247761246a826135a0565b869063ffffffff6135ef16565b9450612489848263ffffffff611cdb16565b93505b6000851261249861477d565b6040518060c001604052808a6001600160a01b03168152602001896001600160a01b03168152602001831515815260200183151581526020016124da8961391a565b815260200187905260808101519091506125065760405162461bcd60e51b81526004016105989061540a565b98975050505050505050565b600080821561254057612523614822565b61252c8561393b565b8051602090910151909350915061157b9050565b61254861485a565b60405180610100016040528086602001516001600160a01b0316815260200186604001511515815260200186606001511515815260200161258c8760800151611cb5565b81526020018660a0015181526020016125a3613a52565b81526000602082018190526040918201528651905163d3a5c28560e01b815291925073__$417d3a69c503e50f80ca354fced566350c$__9163d3a5c2859161261d916001600160a01b03909116907f0000000000000000000000000000000000000000000000000000000000000000908690600401614eda565b604080518083038186803b15801561263457600080fd5b505af4158015612648573d6000803e3d6000fd5b505050506040513d601f19601f8201168201806040525081019061266c9190614c10565b92509250509250929050565b600080612686600084613a58565b9050600061271982600360009054906101000a90046001600160a01b03166001600160a01b031663313ce5676040518163ffffffff1660e01b815260040160206040518083038186803b1580156126dc57600080fd5b505afa1580156126f0573d6000803e3d6000fd5b505050506040513d601f19601f820116820180604052508101906127149190614d22565b613aed565b9050600061279e866001600160a01b03166318160ddd6040518163ffffffff1660e01b815260040160206040518083038186803b15801561275957600080fd5b505afa15801561276d573d6000803e3d6000fd5b505050506040513d601f19601f820116820180604052508101906127919190614bf8565b839063ffffffff613b0816565b90506127ac86826000612ac3565b6003546127c49087906001600160a01b031684613b26565b50949350505050565b6040516359deb70960e11b81526000906001600160a01b037f0000000000000000000000000000000000000000000000000000000000000000169063b3bd6e129061281e9086908690600401614dca565b60206040518083038186803b15801561283657600080fd5b505afa15801561284a573d6000803e3d6000fd5b505050506040513d601f19601f8201168201806040525081019061286e9190614bf8565b6001600160a01b038416600090815260046020908152604091829020805483518184028101840190945280845293945060609390918301828280156128dc57602002820191906000526020600020905b81546001600160a01b031681526001909101906020018083116128be575b505050505090506128f68382613bcd90919063ffffffff16565b8015612900575081155b15612932576001600160a01b038416600090815260046020526040902061292d908463ffffffff613bda16565b610d62565b612942818463ffffffff613bcd16565b610d625750506001600160a01b0391821660009081526004602090815260408220805460018101825590835291200180546001600160a01b03191691909216179055565b6000807f00000000000000000000000000000000000000000000000000000000000000006001600160a01b031663f8b2cb4f846040518263ffffffff1660e01b81526004016129d59190614db6565b60206040518083038186803b1580156129ed57600080fd5b505afa158015612a01573d6000803e3d6000fd5b505050506040513d601f19601f82011682018060405250810190612a259190614bf8565b90506000600360009054906101000a90046001600160a01b03166001600160a01b031663313ce5676040518163ffffffff1660e01b815260040160206040518083038186803b158015612a7757600080fd5b505afa158015612a8b573d6000803e3d6000fd5b505050506040513d601f19601f82011682018060405250810190612aaf9190614d22565b9050612abb8282613d06565b949350505050565b81612acd57612d90565b6003546040516370a0823160e01b81526000916001600160a01b0316906370a0823190612afe908790600401614db6565b60206040518083038186803b158015612b1657600080fd5b505afa158015612b2a573d6000803e3d6000fd5b505050506040513d601f19601f82011682018060405250810190612b4e9190614bf8565b90506000612bd3856001600160a01b03166318160ddd6040518163ffffffff1660e01b815260040160206040518083038186803b158015612b8e57600080fd5b505afa158015612ba2573d6000803e3d6000fd5b505050506040513d601f19601f82011682018060405250810190612bc69190614bf8565b859063ffffffff61318116565b600354604051632ab3e8ef60e11b815291925073__$417d3a69c503e50f80ca354fced566350c$__91635567d1de91612c41916001600160a01b03808b16927f0000000000000000000000000000000000000000000000000000000000000000929116908790600401614fcb565b60006040518083038186803b158015612c5957600080fd5b505af4158015612c6d573d6000803e3d6000fd5b505050508215612d1d57612d19600360009054906101000a90046001600160a01b0316866001600160a01b03166318160ddd6040518163ffffffff1660e01b815260040160206040518083038186803b158015612cc957600080fd5b505afa158015612cdd573d6000803e3d6000fd5b505050506040513d601f19601f82011682018060405250810190612d019190614bf8565b6001600160a01b03881691908563ffffffff6132a716565b5050505b6003546001600160a01b03808716916363a90fc1911630612d3d896133ed565b6040518463ffffffff1660e01b8152600401612d5b93929190614de4565b600060405180830381600087803b158015612d7557600080fd5b505af1158015612d89573d6000803e3d6000fd5b5050505050505b505050565b6000806060612da3866116bb565b90506000612db18787613d21565b905060006060612dc18985613ec9565b909250905060005b8451811015612f1e576000612e136120f38c6001600160a01b03166318160ddd6040518163ffffffff1660e01b815260040160206040518083038186803b15801561205a57600080fd5b90506000612e236121298c6135a0565b9050612e2d61477d565b612e528d898681518110612e3d57fe5b602002602001015160000151846000806123db565b90506000612e84612e7f878781518110612e6857fe5b6020026020010151856135ef90919063ffffffff16565b61391a565b90506000612e92838e612512565b9150506000808612612ebe57612eb783612eab846135a0565b9063ffffffff6130bf16565b9050612eda565b612ed7612eca836135a0565b849063ffffffff6130bf16565b90505b612f0a612efd612ef0858c63ffffffff6135c516565b839063ffffffff61355a16565b8d9063ffffffff61355a16565b9b505060019095019450612dc99350505050565b50612f2f858463ffffffff61355a16565b9450612f4d6122bd612f408a6135a0565b879063ffffffff6135c516565b9998505050505050505050565b612f6482826136d9565b612f805760405162461bcd60e51b81526004016105989061552c565b5050565b600054604051631d3af8fb60e21b81526001600160a01b03909116906374ebe3ec90612fb4908490600401614db6565b60206040518083038186803b158015612fcc57600080fd5b505afa158015612fe0573d6000803e3d6000fd5b505050506040513d601f19601f820116820180604052508101906130049190614a13565b6130205760405162461bcd60e51b8152600401610598906154e9565b61302981614082565b611cb25760405162461bcd60e51b815260040161059890615133565b600080613051836140b1565b9050612352816140bc565b81516000908190815b818110156130af57846001600160a01b031686828151811061308357fe5b60200260200101516001600160a01b031614156130a75792506001915061157b9050565b600101613065565b5060001995600095509350505050565b60008183038183128015906130d45750838113155b806130e957506000831280156130e957508381135b611d055760405162461bcd60e51b815260040161059890615563565b60008261311457506000611d08565b8282028284828161312157fe5b0414611d055760405162461bcd60e51b8152600401610598906152be565b6000611d0583836040518060400160405280601a81526020017f536166654d6174683a206469766973696f6e206279207a65726f000000000000815250614179565b600082158061318e575081155b1561319b57506000611d08565b611d0560016131cc670de0b6b3a7640000611cf9836131c0898963ffffffff61310516565b9063ffffffff6141b016565b9063ffffffff6141f216565b606082826040516024016131ed929190614e08565b60408051601f198184030181529181526020820180516001600160e01b031663095ea7b360e01b179052516347b7819960e11b81529091506001600160a01b03861690638f6f0332906132499087906000908690600401614e21565b600060405180830381600087803b15801561326357600080fd5b505af1158015613277573d6000803e3d6000fd5b505050506040513d6000823e601f3d908101601f1916820160405261329f9190810190614a2f565b505050505050565b600080600080866001600160a01b03166370a08231896040518263ffffffff1660e01b81526004016132d99190614db6565b60206040518083038186803b1580156132f157600080fd5b505afa158015613305573d6000803e3d6000fd5b505050506040513d601f19601f820116820180604052508101906133299190614bf8565b905060006133b1896001600160a01b03166366cb8d2f8a6040518263ffffffff1660e01b815260040161335c9190614db6565b60206040518083038186803b15801561337457600080fd5b505afa158015613388573d6000803e3d6000fd5b505050506040513d601f19601f820116820180604052508101906133ac9190614bf8565b611cb5565b9050600082156133ce576133c788888585614217565b90506133d2565b5060005b6133dd8a8a8361425c565b9199909850909650945050505050565b600060606133fa836116bb565b90506134046147b2565b61340d84610a0a565b90506000805b835181101561348b57600061344161209286848151811061343057fe5b602002602001015160000151610731565b9050613480613473612e7f8388868151811061345957fe5b6020026020010151602001516135ef90919063ffffffff16565b849063ffffffff61355a16565b925050600101613413565b5060006134fc6134cd876001600160a01b03166318160ddd6040518163ffffffff1660e01b815260040160206040518083038186803b15801561205a57600080fd5b61226485604001516122a087602001516122a089606001516122a08b600001518b61355a90919063ffffffff16565b905061355081600360009054906101000a90046001600160a01b03166001600160a01b031663313ce5676040518163ffffffff1660e01b815260040160206040518083038186803b15801561230b57600080fd5b9695505050505050565b600082820181831280159061356f5750838112155b80613584575060008312801561358457508381125b611d055760405162461bcd60e51b81526004016105989061516a565b6000600160ff1b8210611cd75760405162461bcd60e51b81526004016105989061545d565b6000611d05826135e385670de0b6b3a764000063ffffffff61365316565b9063ffffffff6143a216565b6000611d05670de0b6b3a76400006135e3858563ffffffff61365316565b600080613620858563ffffffff6135ef16565b9050600061363b8460200151836135c590919063ffffffff16565b6040850151909150613550908263ffffffff6135ef16565b60008261366257506000611d08565b826000191480156136765750600160ff1b82145b156136935760405162461bcd60e51b81526004016105989061538c565b828202828482816136a057fe5b0514611d055760405162461bcd60e51b81526004016105989061538c565b6000611d058360ff8416601203600a0a63ffffffff6143a216565b6000816001600160a01b0316836001600160a01b031663481c6a756040518163ffffffff1660e01b815260040160206040518083038186803b15801561371e57600080fd5b505afa158015613732573d6000803e3d6000fd5b505050506040513d601f19601f820116820180604052508101906137569190614930565b6001600160a01b0316149392505050565b60008054604051631d3af8fb60e21b81526001600160a01b03909116906374ebe3ec90613798908590600401614db6565b60206040518083038186803b1580156137b057600080fd5b505afa1580156137c4573d6000803e3d6000fd5b505050506040513d601f19601f820116820180604052508101906137e89190614a13565b8015611d0857506040516335fc6c9f60e21b81526001600160a01b0383169063d7f1b27c9061381b903090600401614db6565b60206040518083038186803b15801561383357600080fd5b505afa158015613847573d6000803e3d6000fd5b505050506040513d601f19601f82011682018060405250810190611d089190614a13565b60008080600019858709868602925082811090839003039050806138a1576000841161389657600080fd5b508290049050612352565b8084116138ad57600080fd5b6000848688096000868103871696879004966002600389028118808a02820302808a02820302808a02820302808a02820302808a02820302808a02909103029181900381900460010186841190950394909402919094039290920491909117919091029150509392505050565b600080821215611cd7576139368260001963ffffffff61365316565b611d08565b613943614822565b61394b61489e565b6040518060a0016040528084602001516001600160a01b0316815260200184604001511515815260200184606001511515815260200161398e8560800151611cb5565b815260006020909101528351604051634496ad3760e11b815291925073__$417d3a69c503e50f80ca354fced566350c$__9163892d5a6e91613a02916001600160a01b03909116907f0000000000000000000000000000000000000000000000000000000000000000908690600401614f6f565b60a06040518083038186803b158015613a1a57600080fd5b505af4158015613a2e573d6000803e3d6000fd5b505050506040513d601f19601f820116820180604052508101906123529190614c33565b60001990565b6000805460405163792aa04f60e01b815282916001600160a01b03169063792aa04f90613a8b9030908890600401614e08565b60206040518083038186803b158015613aa357600080fd5b505afa158015613ab7573d6000803e3d6000fd5b505050506040513d601f19601f82011682018060405250810190613adb9190614bf8565b9050612abb838263ffffffff611cdb16565b6000611d058360ff8416601203600a0a63ffffffff61313f16565b6000611d0582611cf985670de0b6b3a764000063ffffffff61310516565b8015612d9057612d90826000809054906101000a90046001600160a01b03166001600160a01b031663469048406040518163ffffffff1660e01b815260040160206040518083038186803b158015613b7d57600080fd5b505afa158015613b91573d6000803e3d6000fd5b505050506040513d601f19601f82011682018060405250810190613bb59190614930565b6001600160a01b03861691908463ffffffff61440616565b600080610863848461305c565b600080613c4084805480602002602001604051908101604052809291908181526020018280548015613c3557602002820191906000526020600020905b81546001600160a01b03168152600190910190602001808311613c17575b50505050508461305c565b9150915080613c615760405162461bcd60e51b815260040161059890615008565b835460001901828114613cd357848181548110613c7a57fe5b9060005260206000200160009054906101000a90046001600160a01b0316858481548110613ca457fe5b9060005260206000200160006101000a8154816001600160a01b0302191690836001600160a01b031602179055505b84805480613cdd57fe5b600082815260209020810160001990810180546001600160a01b03191690550190555050505050565b6000611d058360ff8416601203600a0a63ffffffff61365316565b6000807f00000000000000000000000000000000000000000000000000000000000000006001600160a01b031663c5bba90f856040518263ffffffff1660e01b8152600401613d709190614db6565b604080518083038186803b158015613d8757600080fd5b505afa158015613d9b573d6000803e3d6000fd5b505050506040513d601f19601f82011682018060405250810190613dbf9190614c10565b50905060007f00000000000000000000000000000000000000000000000000000000000000006001600160a01b03166380f57f11866040518263ffffffff1660e01b8152600401613e109190614db6565b60206040518083038186803b158015613e2857600080fd5b505afa158015613e3c573d6000803e3d6000fd5b505050506040513d601f19601f82011682018060405250810190613e609190614bf8565b9050610863613e6e856135a0565b613ebd613ead886001600160a01b03166318160ddd6040518163ffffffff1660e01b815260040160206040518083038186803b15801561205a57600080fd5b612264868663ffffffff61355a16565b9063ffffffff6135ef16565b8051600090606090818167ffffffffffffffff81118015613ee957600080fd5b50604051908082528060200260200182016040528015613f13578160200160208202803683370190505b509050600080805b84811015613fa857613f3561209289838151811061343057fe5b848281518110613f4157fe5b602002602001018181525050613f76613473612e7f868481518110613f6257fe5b60200260200101518b858151811061345957fe5b9250613f9e612ef0858381518110613f8a57fe5b60200260200101518a848151811061345957fe5b9150600101613f1b565b506000614073614066613fba8b612986565b6122a07f00000000000000000000000000000000000000000000000000000000000000006001600160a01b0316638227bc3e8e6040518263ffffffff1660e01b81526004016140099190614db6565b60206040518083038186803b15801561402157600080fd5b505afa158015614035573d6000803e3d6000fd5b505050506040513d601f19601f820116820180604052508101906140599190614bf8565b869063ffffffff61355a16565b849063ffffffff6135c516565b99939850929650505050505050565b6040516353bae5f760e01b81526000906001600160a01b038316906353bae5f79061381b903090600401614db6565b805160209091012090565b6000805481906140d4906001600160a01b0316614548565b6001600160a01b031663e6d642c530856040518363ffffffff1660e01b8152600401614101929190614e08565b60206040518083038186803b15801561411957600080fd5b505afa15801561412d573d6000803e3d6000fd5b505050506040513d601f19601f820116820180604052508101906141519190614930565b90506001600160a01b038116611d085760405162461bcd60e51b8152600401610598906151ab565b6000818361419a5760405162461bcd60e51b81526004016105989190614ff5565b5060008385816141a657fe5b0495945050505050565b6000611d0583836040518060400160405280601e81526020017f536166654d6174683a207375627472616374696f6e206f766572666c6f7700008152506145c7565b600082820183811015611d055760405162461bcd60e51b8152600401610598906150fc565b60008061423a61422d848863ffffffff611cdb16565b869063ffffffff6141b016565b905061355086614250868463ffffffff6141b016565b9063ffffffff613b0816565b600061426884846145f3565b9050801580156142785750600082115b156142ef57614287848461467a565b6142ea576040516304e3532760e41b81526001600160a01b03851690634e353270906142b7908690600401614db6565b600060405180830381600087803b1580156142d157600080fd5b505af11580156142e5573d6000803e3d6000fd5b505050505b61436c565b8080156142fa575081155b1561436c57614309848461467a565b61436c57604051636f86c89760e01b81526001600160a01b03851690636f86c89790614339908690600401614db6565b600060405180830381600087803b15801561435357600080fd5b505af1158015614367573d6000803e3d6000fd5b505050505b836001600160a01b0316632ba57d1784614385856135a0565b6040518363ffffffff1660e01b815260040161053d929190614e08565b6000816143c15760405162461bcd60e51b8152600401610598906155ed565b816000191480156143d55750600160ff1b83145b156143f25760405162461bcd60e51b815260040161059890615246565b60008284816143fd57fe5b05949350505050565b8015610d62576040516370a0823160e01b81526000906001600160a01b038516906370a082319061443b908890600401614db6565b60206040518083038186803b15801561445357600080fd5b505afa158015614467573d6000803e3d6000fd5b505050506040513d601f19601f8201168201806040525081019061448b9190614bf8565b905061449985858585614706565b6040516370a0823160e01b81526000906001600160a01b038616906370a08231906144c8908990600401614db6565b60206040518083038186803b1580156144e057600080fd5b505afa1580156144f4573d6000803e3d6000fd5b505050506040513d601f19601f820116820180604052508101906145189190614bf8565b905061452a828463ffffffff6141b016565b811461329f5760405162461bcd60e51b8152600401610598906153d3565b6040516373b2e76b60e11b81526000906001600160a01b0383169063e765ced690614577908490600401615684565b60206040518083038186803b15801561458f57600080fd5b505afa1580156145a3573d6000803e3d6000fd5b505050506040513d601f19601f82011682018060405250810190611d089190614930565b600081848411156145eb5760405162461bcd60e51b81526004016105989190614ff5565b505050900390565b600080836001600160a01b03166366cb8d2f846040518263ffffffff1660e01b81526004016146229190614db6565b60206040518083038186803b15801561463a57600080fd5b505afa15801561464e573d6000803e3d6000fd5b505050506040513d601f19601f820116820180604052508101906146729190614bf8565b139392505050565b600080836001600160a01b031663a7bdad03846040518263ffffffff1660e01b81526004016146a99190614db6565b60006040518083038186803b1580156146c157600080fd5b505afa1580156146d5573d6000803e3d6000fd5b505050506040513d6000823e601f3d908101601f191682016040526146fd919081019061494c565b51119392505050565b8015610d625760608282604051602401614721929190614e08565b60408051601f198184030181529181526020820180516001600160e01b031663a9059cbb60e01b179052516347b7819960e11b81529091506001600160a01b03861690638f6f0332906132499087906000908690600401614e21565b6040805160c081018252600080825260208201819052918101829052606081018290526080810182905260a081019190915290565b6040518060800160405280600081526020016000815260200160008152602001600081525090565b5080546000825590600052602060002090810190611cb291906148cc565b604051806060016040528060006001600160a01b0316815260200160008152602001600081525090565b6040518060a001604052806000815260200160008152602001600081526020016000815260200160006001600160a01b031681525090565b6040805161010081018252600080825260208201819052918101829052606081018290526080810182905260a0810182905260c0810182905260e081019190915290565b6040805160a08101825260008082526020820181905291810182905260608101829052608081019190915290565b610d7591905b80821115611cd757600081556001016148d2565b8051611d08816156fd565b805161ffff81168114611d0857600080fd5b805160ff81168114611d0857600080fd5b600060208284031215614925578081fd5b8135611d05816156fd565b600060208284031215614941578081fd5b8151611d05816156fd565b6000602080838503121561495e578182fd5b825167ffffffffffffffff80821115614975578384fd5b81850186601f820112614986578485fd5b8051925081831115614996578485fd5b83830291506149a68483016156aa565b8381528481019082860184840187018a10156149c0578788fd5b8794505b858510156149ea576149d68a826148e6565b8352600194909401939186019186016149c4565b5098975050505050505050565b600060208284031215614a08578081fd5b8135611d0581615712565b600060208284031215614a24578081fd5b8151611d0581615712565b600060208284031215614a40578081fd5b815167ffffffffffffffff80821115614a57578283fd5b81840185601f820112614a68578384fd5b8051925081831115614a78578384fd5b614a8b601f8401601f19166020016156aa565b9150828252856020848301011115614aa1578384fd5b6127c48360208401602084016156d1565b60008060008060808587031215614ac7578283fd5b8435614ad2816156fd565b93506020850135614ae2816156fd565b93969395505050506040820135916060013590565b60008060408385031215614b09578182fd5b8235614b14816156fd565b91506020830135614b2481615712565b809150509250929050565b60008060408385031215614b41578182fd5b8235614b4c816156fd565b91506020830135614b24816156fd565b60008060408385031215614b6e578182fd5b8235614b79816156fd565b946020939093013593505050565b60008060008060808587031215614b9c578182fd5b8435614ba7816156fd565b9350602085013592506040850135614bbe816156fd565b91506060850135614bce81615712565b939692955090935050565b600060208284031215614bea578081fd5b815160038110611d05578182fd5b600060208284031215614c09578081fd5b5051919050565b60008060408385031215614c22578182fd5b505080516020909101519092909150565b600060a08284031215614c44578081fd5b614c4e60a06156aa565b825181526020830151602082015260408301516040820152606083015160608201526080830151614c7e816156fd565b60808201529392505050565b600080600080600080600060e0888a031215614ca4578485fd5b8751614caf816156fd565b8097505060208801518060020b8114614cc6578586fd5b9550614cd58960408a016148f1565b9450614ce48960608a016148f1565b9350614cf38960808a016148f1565b9250614d028960a08a01614903565b915060c0880151614d1281615712565b8091505092959891949750929550565b600060208284031215614d33578081fd5b611d058383614903565b6001600160a01b03169052565b6000815180845260208085019450808401835b83811015614d7957815187529582019590820190600101614d5d565b509495945050505050565b15159052565b60008151808452614da28160208601602086016156d1565b601f01601f19169290920160200192915050565b6001600160a01b0391909116815260200190565b6001600160a01b0392831681529116602082015260400190565b6001600160a01b039384168152919092166020820152604081019190915260600190565b6001600160a01b03929092168252602082015260400190565b600060018060a01b0385168252836020830152606060408301526108636060830184614d8a565b600060408252614e5b6040830185614d4a565b82810360208401526108638185614d4a565b602080825282518282018190526000919060409081850190868401855b82811015614ec257815180516001600160a01b0316855286810151878601528501518585015260609093019290850190600101614e8a565b5091979650505050505050565b901515815260200190565b6001600160a01b038481168252831660208201528151610140820190614f04906040840190614d3d565b6020830151614f166060840182614d84565b506040830151614f296080840182614d84565b50606083015160a0830152608083015160c083015260a083015160e083015260c0830151614f5b610100840182614d3d565b5060e0830151610120830152949350505050565b600060e08201905060018060a01b0380861683528085166020840152808451166040840152602084015115156060840152604084015115156080840152606084015160a08401528060808501511660c084015250949350505050565b6001600160a01b039485168152928416602084015292166040820152606081019190915260800190565b600060208252611d056020830184614d8a565b60208082526015908201527420b2323932b9b9903737ba1034b71030b93930bc9760591b604082015260600190565b60208082526028908201527f4d75737420626520612076616c696420616e6420696e697469616c697a65642060408201526729b2ba2a37b5b2b760c11b606082015260800190565b6020808252601c908201527f436f6c6c61746572616c2062616c616e63652072656d61696e696e6700000000604082015260600190565b60208082526026908201527f4f776e61626c653a206e6577206f776e657220697320746865207a65726f206160408201526564647265737360d01b606082015260800190565b6020808252601b908201527f536166654d6174683a206164646974696f6e206f766572666c6f770000000000604082015260600190565b6020808252601e908201527f4d7573742062652070656e64696e6720696e697469616c697a6174696f6e0000604082015260600190565b60208082526021908201527f5369676e6564536166654d6174683a206164646974696f6e206f766572666c6f6040820152607760f81b606082015260800190565b60208082526015908201527426bab9ba103132903b30b634b21030b230b83a32b960591b604082015260600190565b6020808252818101527f53616665436173743a2076616c7565206d75737420626520706f736974697665604082015260600190565b60208082526018908201527f4f6e6c7920746865206d6f64756c652063616e2063616c6c0000000000000000604082015260600190565b60208082526021908201527f5369676e6564536166654d6174683a206469766973696f6e206f766572666c6f6040820152607760f81b606082015260800190565b60208082526018908201527f49737375616e6365206e6f7420696e697469616c697a65640000000000000000604082015260600190565b60208082526021908201527f536166654d6174683a206d756c7469706c69636174696f6e206f766572666c6f6040820152607760f81b606082015260800190565b60208082526010908201526f24b73b30b634b21029b2ba2a37b5b2b760811b604082015260600190565b6020808252818101527f4f776e61626c653a2063616c6c6572206973206e6f7420746865206f776e6572604082015260600190565b6020808252601490820152732737ba1030b63637bbb2b21029b2ba2a37b5b2b760611b604082015260600190565b60208082526027908201527f5369676e6564536166654d6174683a206d756c7469706c69636174696f6e206f604082015266766572666c6f7760c81b606082015260800190565b6020808252601d908201527f496e76616c696420706f7374207472616e736665722062616c616e6365000000604082015260600190565b6020808252600b908201526a0416d6f756e7420697320360ac1b604082015260600190565b6020808252601490820152730576974686472617720616d6f756e7420697320360641b604082015260600190565b60208082526028908201527f53616665436173743a2076616c756520646f65736e27742066697420696e2061604082015267371034b73a191a9b60c11b606082015260800190565b60208082526024908201527f4d6f64756c65206d75737420626520656e61626c6564206f6e20636f6e74726f604082015263363632b960e11b606082015260800190565b60208082526023908201527f4d75737420626520636f6e74726f6c6c65722d656e61626c656420536574546f60408201526235b2b760e91b606082015260800190565b6020808252601c908201527f4d7573742062652074686520536574546f6b656e206d616e6167657200000000604082015260600190565b60208082526024908201527f5369676e6564536166654d6174683a207375627472616374696f6e206f766572604082015263666c6f7760e01b606082015260800190565b60208082526026908201527f5065727020636f6c6c61746572616c20746f6b656e206973206e6f7420636f6d6040820152651c1bdb995b9d60d21b606082015260800190565b6020808252818101527f5369676e6564536166654d6174683a206469766973696f6e206279207a65726f604082015260600190565b6020808252601f908201527f5265656e7472616e637947756172643a207265656e7472616e742063616c6c00604082015260600190565b8151815260208083015190820152604080830151908201526060918201519181019190915260800190565b90815260200190565b938452602084019290925260408301521515606082015260800190565b60405181810167ffffffffffffffff811182821017156156c957600080fd5b604052919050565b60005b838110156156ec5781810151838201526020016156d4565b83811115610d625750506000910152565b6001600160a01b0381168114611cb257600080fd5b8015158114611cb257600080fdfea2646970667358221220bbc935cfd4d076735b3e761bc91128df6fbeb95a4a55bd87da236197a2ede4c364736f6c634300060a0033",
  "deployedBytecode": "$$__9163178642a491611ec4916001600160a01b03808a16927f000000000000000000000000000000000000000000000000000000000000000092909116908790600401614fcb565b60006040518083038186803b158015611edc57600080fd5b505af4158015611ef0573d6000803e3d6000fd5b50505050611f96600360009054906101000a90046001600160a01b0316856001600160a01b03166318160ddd6040518163ffffffff1660e01b815260040160206040518083038186803b158015611f4657600080fd5b505afa158015611f5a573d6000803e3d6000fd5b505050506040513d601f19601f82011682018060405250810190611f7e9190614bf8565b6001600160a01b03871691908563ffffffff6132a716565b50506003546001600160a01b0380871692506363a90fc1911630611fb9886133ed565b6040518463ffffffff1660e01b815260040161053d93929190614de4565b6000806060611fe5866116bb565b9050611fef6147b2565b611ff887610a0a565b905060006120178260200151836040015161355a90919063ffffffff16565b905060006120a46120978a6001600160a01b03166318160ddd6040518163ffffffff1660e01b815260040160206040518083038186803b15801561205a57600080fd5b505afa15801561206e573d6000803e3d6000fd5b505050506040513d601f19601f820116820180604052508101906120929190614bf8565b6135a0565b839063ffffffff6135c516565b905060005b84518110156122195760006121196120f38c6001600160a01b03166318160ddd6040518163ffffffff1660e01b815260040160206040518083038186803b15801561205a57600080fd5b8784815181106120ff57fe5b6020026020010151602001516135c590919063ffffffff16565b905060006121366121298c6135a0565b839063ffffffff6135ef16565b905060006121606121468d6135a0565b848a878151811061215357fe5b602002602001015161360d565b905061216a61477d565b6121a08e8a878151811061217a57fe5b6020908102919091010151516121988660001963ffffffff61365316565b6000806123db565b905060006121ae828e612512565b915050600085126121e9576121e26121d56121c8836135a0565b859063ffffffff61355a16565b8c9063ffffffff61355a16565b9a50612208565b6122056121d56121f8836135a0565b859063ffffffff6130bf16565b9a505b5050600190930192506120a9915050565b50600061227061225b8b6001600160a01b03166318160ddd6040518163ffffffff1660e01b815260040160206040518083038186803b15801561205a57600080fd5b6122648c612986565b9063ffffffff6135c516565b905060006122ac876122a06122946122878e6135a0565b879063ffffffff6135ef16565b6122a06122878f6135a0565b9063ffffffff61355a16565b90506123486122bd6120978c6135a0565b600360009054906101000a90046001600160a01b03166001600160a01b031663313ce5676040518163ffffffff1660e01b815260040160206040518083038186803b15801561230b57600080fd5b505afa15801561231f573d6000803e3d6000fd5b505050506040513d601f19601f820116820180604052508101906123439190614d22565b6136be565b9750505050505050505b9392505050565b61236381336136d9565b61237f5760405162461bcd60e51b81526004016105989061552c565b61238881613767565b611cb25760405162461bcd60e51b815260040161059890615037565b3390565b6000611d086001600160a01b03831680600160601b61386b565b6000611d0882670de0b6b3a7640000600160601b61386b565b6123e361477d565b6000866001600160a01b03166318160ddd6040518163ffffffff1660e01b815260040160206040518083038186803b15801561241e57600080fd5b505afa158015612432573d6000803e3d6000fd5b505050506040513d601f19601f820116820180604052508101906124569190614bf8565b9050821561248c5761247761246a826135a0565b869063ffffffff6135ef16565b9450612489848263ffffffff611cdb16565b93505b6000851261249861477d565b6040518060c001604052808a6001600160a01b03168152602001896001600160a01b03168152602001831515815260200183151581526020016124da8961391a565b815260200187905260808101519091506125065760405162461bcd60e51b81526004016105989061540a565b98975050505050505050565b600080821561254057612523614822565b61252c8561393b565b8051602090910151909350915061157b9050565b61254861485a565b60405180610100016040528086602001516001600160a01b0316815260200186604001511515815260200186606001511515815260200161258c8760800151611cb5565b81526020018660a0015181526020016125a3613a52565b81526000602082018190526040918201528651905163d3a5c28560e01b815291925073__$417d3a69c503e50f80ca354fced566350c$__9163d3a5c2859161261d916001600160a01b03909116907f0000000000000000000000000000000000000000000000000000000000000000908690600401614eda565b604080518083038186803b15801561263457600080fd5b505af4158015612648573d6000803e3d6000fd5b505050506040513d601f19601f8201168201806040525081019061266c9190614c10565b92509250509250929050565b600080612686600084613a58565b9050600061271982600360009054906101000a90046001600160a01b03166001600160a01b031663313ce5676040518163ffffffff1660e01b815260040160206040518083038186803b1580156126dc57600080fd5b505afa1580156126f0573d6000803e3d6000fd5b505050506040513d601f19601f820116820180604052508101906127149190614d22565b613aed565b9050600061279e866001600160a01b03166318160ddd6040518163ffffffff1660e01b815260040160206040518083038186803b15801561275957600080fd5b505afa15801561276d573d6000803e3d6000fd5b505050506040513d601f19601f820116820180604052508101906127919190614bf8565b839063ffffffff613b0816565b90506127ac86826000612ac3565b6003546127c49087906001600160a01b031684613b26565b50949350505050565b6040516359deb70960e11b81526000906001600160a01b037f0000000000000000000000000000000000000000000000000000000000000000169063b3bd6e129061281e9086908690600401614dca565b60206040518083038186803b15801561283657600080fd5b505afa15801561284a573d6000803e3d6000fd5b505050506040513d601f19601f8201168201806040525081019061286e9190614bf8565b6001600160a01b038416600090815260046020908152604091829020805483518184028101840190945280845293945060609390918301828280156128dc57602002820191906000526020600020905b81546001600160a01b031681526001909101906020018083116128be575b505050505090506128f68382613bcd90919063ffffffff16565b8015612900575081155b15612932576001600160a01b038416600090815260046020526040902061292d908463ffffffff613bda16565b610d62565b612942818463ffffffff613bcd16565b610d625750506001600160a01b0391821660009081526004602090815260408220805460018101825590835291200180546001600160a01b03191691909216179055565b6000807f00000000000000000000000000000000000000000000000000000000000000006001600160a01b031663f8b2cb4f846040518263ffffffff1660e01b81526004016129d59190614db6565b60206040518083038186803b1580156129ed57600080fd5b505afa158015612a01573d6000803e3d6000fd5b505050506040513d601f19601f82011682018060405250810190612a259190614bf8565b90506000600360009054906101000a90046001600160a01b03166001600160a01b031663313ce5676040518163ffffffff1660e01b815260040160206040518083038186803b158015612a7757600080fd5b505afa158015612a8b573d6000803e3d6000fd5b505050506040513d601f19601f82011682018060405250810190612aaf9190614d22565b9050612abb8282613d06565b949350505050565b81612acd57612d90565b6003546040516370a0823160e01b81526000916001600160a01b0316906370a0823190612afe908790600401614db6565b60206040518083038186803b158015612b1657600080fd5b505afa158015612b2a573d6000803e3d6000fd5b505050506040513d601f19601f82011682018060405250810190612b4e9190614bf8565b90506000612bd3856001600160a01b03166318160ddd6040518163ffffffff1660e01b815260040160206040518083038186803b158015612b8e57600080fd5b505afa158015612ba2573d6000803e3d6000fd5b505050506040513d601f19601f82011682018060405250810190612bc69190614bf8565b859063ffffffff61318116565b600354604051632ab3e8ef60e11b815291925073__$417d3a69c503e50f80ca354fced566350c$__91635567d1de91612c41916001600160a01b03808b16927f0000000000000000000000000000000000000000000000000000000000000000929116908790600401614fcb565b60006040518083038186803b158015612c5957600080fd5b505af4158015612c6d573d6000803e3d6000fd5b505050508215612d1d57612d19600360009054906101000a90046001600160a01b0316866001600160a01b03166318160ddd6040518163ffffffff1660e01b815260040160206040518083038186803b158015612cc957600080fd5b505afa158015612cdd573d6000803e3d6000fd5b505050506040513d601f19601f82011682018060405250810190612d019190614bf8565b6001600160a01b03881691908563ffffffff6132a716565b5050505b6003546001600160a01b03808716916363a90fc1911630612d3d896133ed565b6040518463ffffffff1660e01b8152600401612d5b93929190614de4565b600060405180830381600087803b158015612d7557600080fd5b505af1158015612d89573d6000803e3d6000fd5b5050505050505b505050565b6000806060612da3866116bb565b90506000612db18787613d21565b905060006060612dc18985613ec9565b909250905060005b8451811015612f1e576000612e136120f38c6001600160a01b03166318160ddd6040518163ffffffff1660e01b815260040160206040518083038186803b15801561205a57600080fd5b90506000612e236121298c6135a0565b9050612e2d61477d565b612e528d898681518110612e3d57fe5b602002602001015160000151846000806123db565b90506000612e84612e7f878781518110612e6857fe5b6020026020010151856135ef90919063ffffffff16565b61391a565b90506000612e92838e612512565b9150506000808612612ebe57612eb783612eab846135a0565b9063ffffffff6130bf16565b9050612eda565b612ed7612eca836135a0565b849063ffffffff6130bf16565b90505b612f0a612efd612ef0858c63ffffffff6135c516565b839063ffffffff61355a16565b8d9063ffffffff61355a16565b9b505060019095019450612dc99350505050565b50612f2f858463ffffffff61355a16565b9450612f4d6122bd612f408a6135a0565b879063ffffffff6135c516565b9998505050505050505050565b612f6482826136d9565b612f805760405162461bcd60e51b81526004016105989061552c565b5050565b600054604051631d3af8fb60e21b81526001600160a01b03909116906374ebe3ec90612fb4908490600401614db6565b60206040518083038186803b158015612fcc57600080fd5b505afa158015612fe0573d6000803e3d6000fd5b505050506040513d601f19601f820116820180604052508101906130049190614a13565b6130205760405162461bcd60e51b8152600401610598906154e9565b61302981614082565b611cb25760405162461bcd60e51b815260040161059890615133565b600080613051836140b1565b9050612352816140bc565b81516000908190815b818110156130af57846001600160a01b031686828151811061308357fe5b60200260200101516001600160a01b031614156130a75792506001915061157b9050565b600101613065565b5060001995600095509350505050565b60008183038183128015906130d45750838113155b806130e957506000831280156130e957508381135b611d055760405162461bcd60e51b815260040161059890615563565b60008261311457506000611d08565b8282028284828161312157fe5b0414611d055760405162461bcd60e51b8152600401610598906152be565b6000611d0583836040518060400160405280601a81526020017f536166654d6174683a206469766973696f6e206279207a65726f000000000000815250614179565b600082158061318e575081155b1561319b57506000611d08565b611d0560016131cc670de0b6b3a7640000611cf9836131c0898963ffffffff61310516565b9063ffffffff6141b016565b9063ffffffff6141f216565b606082826040516024016131ed929190614e08565b60408051601f198184030181529181526020820180516001600160e01b031663095ea7b360e01b179052516347b7819960e11b81529091506001600160a01b03861690638f6f0332906132499087906000908690600401614e21565b600060405180830381600087803b15801561326357600080fd5b505af1158015613277573d6000803e3d6000fd5b505050506040513d6000823e601f3d908101601f1916820160405261329f9190810190614a2f565b505050505050565b600080600080866001600160a01b03166370a08231896040518263ffffffff1660e01b81526004016132d99190614db6565b60206040518083038186803b1580156132f157600080fd5b505afa158015613305573d6000803e3d6000fd5b505050506040513d601f19601f820116820180604052508101906133299190614bf8565b905060006133b1896001600160a01b03166366cb8d2f8a6040518263ffffffff1660e01b815260040161335c9190614db6565b60206040518083038186803b15801561337457600080fd5b505afa158015613388573d6000803e3d6000fd5b505050506040513d601f19601f820116820180604052508101906133ac9190614bf8565b611cb5565b9050600082156133ce576133c788888585614217565b90506133d2565b5060005b6133dd8a8a8361425c565b9199909850909650945050505050565b600060606133fa836116bb565b90506134046147b2565b61340d84610a0a565b90506000805b835181101561348b57600061344161209286848151811061343057fe5b602002602001015160000151610731565b9050613480613473612e7f8388868151811061345957fe5b6020026020010151602001516135ef90919063ffffffff16565b849063ffffffff61355a16565b925050600101613413565b5060006134fc6134cd876001600160a01b03166318160ddd6040518163ffffffff1660e01b815260040160206040518083038186803b15801561205a57600080fd5b61226485604001516122a087602001516122a089606001516122a08b600001518b61355a90919063ffffffff16565b905061355081600360009054906101000a90046001600160a01b03166001600160a01b031663313ce5676040518163ffffffff1660e01b815260040160206040518083038186803b15801561230b57600080fd5b9695505050505050565b600082820181831280159061356f5750838112155b80613584575060008312801561358457508381125b611d055760405162461bcd60e51b81526004016105989061516a565b6000600160ff1b8210611cd75760405162461bcd60e51b81526004016105989061545d565b6000611d05826135e385670de0b6b3a764000063ffffffff61365316565b9063ffffffff6143a216565b6000611d05670de0b6b3a76400006135e3858563ffffffff61365316565b600080613620858563ffffffff6135ef16565b9050600061363b8460200151836135c590919063ffffffff16565b6040850151909150613550908263ffffffff6135ef16565b60008261366257506000611d08565b826000191480156136765750600160ff1b82145b156136935760405162461bcd60e51b81526004016105989061538c565b828202828482816136a057fe5b0514611d055760405162461bcd60e51b81526004016105989061538c565b6000611d058360ff8416601203600a0a63ffffffff6143a216565b6000816001600160a01b0316836001600160a01b031663481c6a756040518163ffffffff1660e01b815260040160206040518083038186803b15801561371e57600080fd5b505afa158015613732573d6000803e3d6000fd5b505050506040513d601f19601f820116820180604052508101906137569190614930565b6001600160a01b0316149392505050565b60008054604051631d3af8fb60e21b81526001600160a01b03909116906374ebe3ec90613798908590600401614db6565b60206040518083038186803b1580156137b057600080fd5b505afa1580156137c4573d6000803e3d6000fd5b505050506040513d601f19601f820116820180604052508101906137e89190614a13565b8015611d0857506040516335fc6c9f60e21b81526001600160a01b0383169063d7f1b27c9061381b903090600401614db6565b60206040518083038186803b15801561383357600080fd5b505afa158015613847573d6000803e3d6000fd5b505050506040513d601f19601f82011682018060405250810190611d089190614a13565b60008080600019858709868602925082811090839003039050806138a1576000841161389657600080fd5b508290049050612352565b8084116138ad57600080fd5b6000848688096000868103871696879004966002600389028118808a02820302808a02820302808a02820302808a02820302808a02820302808a02909103029181900381900460010186841190950394909402919094039290920491909117919091029150509392505050565b600080821215611cd7576139368260001963ffffffff61365316565b611d08565b613943614822565b61394b61489e565b6040518060a0016040528084602001516001600160a01b0316815260200184604001511515815260200184606001511515815260200161398e8560800151611cb5565b815260006020909101528351604051634496ad3760e11b815291925073__$417d3a69c503e50f80ca354fced566350c$__9163892d5a6e91613a02916001600160a01b03909116907f0000000000000000000000000000000000000000000000000000000000000000908690600401614f6f565b60a06040518083038186803b158015613a1a57600080fd5b505af4158015613a2e573d6000803e3d6000fd5b505050506040513d601f19601f820116820180604052508101906123529190614c33565b60001990565b6000805460405163792aa04f60e01b815282916001600160a01b03169063792aa04f90613a8b9030908890600401614e08565b60206040518083038186803b158015613aa357600080fd5b505afa158015613ab7573d6000803e3d6000fd5b505050506040513d601f19601f82011682018060405250810190613adb9190614bf8565b9050612abb838263ffffffff611cdb16565b6000611d058360ff8416601203600a0a63ffffffff61313f16565b6000611d0582611cf985670de0b6b3a764000063ffffffff61310516565b8015612d9057612d90826000809054906101000a90046001600160a01b03166001600160a01b031663469048406040518163ffffffff1660e01b815260040160206040518083038186803b158015613b7d57600080fd5b505afa158015613b91573d6000803e3d6000fd5b505050506040513d601f19601f82011682018060405250810190613bb59190614930565b6001600160a01b03861691908463ffffffff61440616565b600080610863848461305c565b600080613c4084805480602002602001604051908101604052809291908181526020018280548015613c3557602002820191906000526020600020905b81546001600160a01b03168152600190910190602001808311613c17575b50505050508461305c565b9150915080613c615760405162461bcd60e51b815260040161059890615008565b835460001901828114613cd357848181548110613c7a57fe5b9060005260206000200160009054906101000a90046001600160a01b0316858481548110613ca457fe5b9060005260206000200160006101000a8154816001600160a01b0302191690836001600160a01b031602179055505b84805480613cdd57fe5b600082815260209020810160001990810180546001600160a01b03191690550190555050505050565b6000611d058360ff8416601203600a0a63ffffffff61365316565b6000807f00000000000000000000000000000000000000000000000000000000000000006001600160a01b031663c5bba90f856040518263ffffffff1660e01b8152600401613d709190614db6565b604080518083038186803b158015613d8757600080fd5b505afa158015613d9b573d6000803e3d6000fd5b505050506040513d601f19601f82011682018060405250810190613dbf9190614c10565b50905060007f00000000000000000000000000000000000000000000000000000000000000006001600160a01b03166380f57f11866040518263ffffffff1660e01b8152600401613e109190614db6565b60206040518083038186803b158015613e2857600080fd5b505afa158015613e3c573d6000803e3d6000fd5b505050506040513d601f19601f82011682018060405250810190613e609190614bf8565b9050610863613e6e856135a0565b613ebd613ead886001600160a01b03166318160ddd6040518163ffffffff1660e01b815260040160206040518083038186803b15801561205a57600080fd5b612264868663ffffffff61355a16565b9063ffffffff6135ef16565b8051600090606090818167ffffffffffffffff81118015613ee957600080fd5b50604051908082528060200260200182016040528015613f13578160200160208202803683370190505b509050600080805b84811015613fa857613f3561209289838151811061343057fe5b848281518110613f4157fe5b602002602001018181525050613f76613473612e7f868481518110613f6257fe5b60200260200101518b858151811061345957fe5b9250613f9e612ef0858381518110613f8a57fe5b60200260200101518a848151811061345957fe5b9150600101613f1b565b506000614073614066613fba8b612986565b6122a07f00000000000000000000000000000000000000000000000000000000000000006001600160a01b0316638227bc3e8e6040518263ffffffff1660e01b81526004016140099190614db6565b60206040518083038186803b15801561402157600080fd5b505afa158015614035573d6000803e3d6000fd5b505050506040513d601f19601f820116820180604052508101906140599190614bf8565b869063ffffffff61355a16565b849063ffffffff6135c516565b99939850929650505050505050565b6040516353bae5f760e01b81526000906001600160a01b038316906353bae5f79061381b903090600401614db6565b805160209091012090565b6000805481906140d4906001600160a01b0316614548565b6001600160a01b031663e6d642c530856040518363ffffffff1660e01b8152600401614101929190614e08565b60206040518083038186803b15801561411957600080fd5b505afa15801561412d573d6000803e3d6000fd5b505050506040513d601f19601f820116820180604052508101906141519190614930565b90506001600160a01b038116611d085760405162461bcd60e51b8152600401610598906151ab565b6000818361419a5760405162461bcd60e51b81526004016105989190614ff5565b5060008385816141a657fe5b0495945050505050565b6000611d0583836040518060400160405280601e81526020017f536166654d6174683a207375627472616374696f6e206f766572666c6f7700008152506145c7565b600082820183811015611d055760405162461bcd60e51b8152600401610598906150fc565b60008061423a61422d848863ffffffff611cdb16565b869063ffffffff6141b016565b905061355086614250868463ffffffff6141b016565b9063ffffffff613b0816565b600061426884846145f3565b9050801580156142785750600082115b156142ef57614287848461467a565b6142ea576040516304e3532760e41b81526001600160a01b03851690634e353270906142b7908690600401614db6565b600060405180830381600087803b1580156142d157600080fd5b505af11580156142e5573d6000803e3d6000fd5b505050505b61436c565b8080156142fa575081155b1561436c57614309848461467a565b61436c57604051636f86c89760e01b81526001600160a01b03851690636f86c89790614339908690600401614db6565b600060405180830381600087803b15801561435357600080fd5b505af1158015614367573d6000803e3d6000fd5b505050505b836001600160a01b0316632ba57d1784614385856135a0565b6040518363ffffffff1660e01b815260040161053d929190614e08565b6000816143c15760405162461bcd60e51b8152600401610598906155ed565b816000191480156143d55750600160ff1b83145b156143f25760405162461bcd60e51b815260040161059890615246565b60008284816143fd57fe5b05949350505050565b8015610d62576040516370a0823160e01b81526000906001600160a01b038516906370a082319061443b908890600401614db6565b60206040518083038186803b15801561445357600080fd5b505afa158015614467573d6000803e3d6000fd5b505050506040513d601f19601f8201168201806040525081019061448b9190614bf8565b905061449985858585614706565b6040516370a0823160e01b81526000906001600160a01b038616906370a08231906144c8908990600401614db6565b60206040518083038186803b1580156144e057600080fd5b505afa1580156144f4573d6000803e3d6000fd5b505050506040513d601f19601f820116820180604052508101906145189190614bf8565b905061452a828463ffffffff6141b016565b811461329f5760405162461bcd60e51b8152600401610598906153d3565b6040516373b2e76b60e11b81526000906001600160a01b0383169063e765ced690614577908490600401615684565b60206040518083038186803b15801561458f57600080fd5b505afa1580156145a3573d6000803e3d6000fd5b505050506040513d601f19601f82011682018060405250810190611d089190614930565b600081848411156145eb5760405162461bcd60e51b81526004016105989190614ff5565b505050900390565b600080836001600160a01b03166366cb8d2f846040518263ffffffff1660e01b81526004016146229190614db6565b60206040518083038186803b15801561463a57600080fd5b505afa15801561464e573d6000803e3d6000fd5b505050506040513d601f19601f820116820180604052508101906146729190614bf8565b139392505050565b600080836001600160a01b031663a7bdad03846040518263ffffffff1660e01b81526004016146a99190614db6565b60006040518083038186803b1580156146c157600080fd5b505afa1580156146d5573d6000803e3d6000fd5b505050506040513d6000823e601f3d908101601f191682016040526146fd919081019061494c565b51119392505050565b8015610d625760608282604051602401614721929190614e08565b60408051601f198184030181529181526020820180516001600160e01b031663a9059cbb60e01b179052516347b7819960e11b81529091506001600160a01b03861690638f6f0332906132499087906000908690600401614e21565b6040805160c081018252600080825260208201819052918101829052606081018290526080810182905260a081019190915290565b6040518060800160405280600081526020016000815260200160008152602001600081525090565b5080546000825590600052602060002090810190611cb291906148cc565b604051806060016040528060006001600160a01b0316815260200160008152602001600081525090565b6040518060a001604052806000815260200160008152602001600081526020016000815260200160006001600160a01b031681525090565b6040805161010081018252600080825260208201819052918101829052606081018290526080810182905260a0810182905260c0810182905260e081019190915290565b6040805160a08101825260008082526020820181905291810182905260608101829052608081019190915290565b610d7591905b80821115611cd757600081556001016148d2565b8051611d08816156fd565b805161ffff81168114611d0857600080fd5b805160ff81168114611d0857600080fd5b600060208284031215614925578081fd5b8135611d05816156fd565b600060208284031215614941578081fd5b8151611d05816156fd565b6000602080838503121561495e578182fd5b825167ffffffffffffffff80821115614975578384fd5b81850186601f820112614986578485fd5b8051925081831115614996578485fd5b83830291506149a68483016156aa565b8381528481019082860184840187018a10156149c0578788fd5b8794505b858510156149ea576149d68a826148e6565b8352600194909401939186019186016149c4565b5098975050505050505050565b600060208284031215614a08578081fd5b8135611d0581615712565b600060208284031215614a24578081fd5b8151611d0581615712565b600060208284031215614a40578081fd5b815167ffffffffffffffff80821115614a57578283fd5b81840185601f820112614a68578384fd5b8051925081831115614a78578384fd5b614a8b601f8401601f19166020016156aa565b9150828252856020848301011115614aa1578384fd5b6127c48360208401602084016156d1565b60008060008060808587031215614ac7578283fd5b8435614ad2816156fd565b93506020850135614ae2816156fd565b93969395505050506040820135916060013590565b60008060408385031215614b09578182fd5b8235614b14816156fd565b91506020830135614b2481615712565b809150509250929050565b60008060408385031215614b41578182fd5b8235614b4c816156fd565b91506020830135614b24816156fd565b60008060408385031215614b6e578182fd5b8235614b79816156fd565b946020939093013593505050565b60008060008060808587031215614b9c578182fd5b8435614ba7816156fd565b9350602085013592506040850135614bbe816156fd565b91506060850135614bce81615712565b939692955090935050565b600060208284031215614bea578081fd5b815160038110611d05578182fd5b600060208284031215614c09578081fd5b5051919050565b60008060408385031215614c22578182fd5b505080516020909101519092909150565b600060a08284031215614c44578081fd5b614c4e60a06156aa565b825181526020830151602082015260408301516040820152606083015160608201526080830151614c7e816156fd565b60808201529392505050565b600080600080600080600060e0888a031215614ca4578485fd5b8751614caf816156fd565b8097505060208801518060020b8114614cc6578586fd5b9550614cd58960408a016148f1565b9450614ce48960608a016148f1565b9350614cf38960808a016148f1565b9250614d028960a08a01614903565b915060c0880151614d1281615712565b8091505092959891949750929550565b600060208284031215614d33578081fd5b611d058383614903565b6001600160a01b03169052565b6000815180845260208085019450808401835b83811015614d7957815187529582019590820190600101614d5d565b509495945050505050565b15159052565b60008151808452614da28160208601602086016156d1565b601f01601f19169290920160200192915050565b6001600160a01b0391909116815260200190565b6001600160a01b0392831681529116602082015260400190565b6001600160a01b039384168152919092166020820152604081019190915260600190565b6001600160a01b03929092168252602082015260400190565b600060018060a01b0385168252836020830152606060408301526108636060830184614d8a565b600060408252614e5b6040830185614d4a565b82810360208401526108638185614d4a565b602080825282518282018190526000919060409081850190868401855b82811015614ec257815180516001600160a01b0316855286810151878601528501518585015260609093019290850190600101614e8a565b5091979650505050505050565b901515815260200190565b6001600160a01b038481168252831660208201528151610140820190614f04906040840190614d3d565b6020830151614f166060840182614d84565b506040830151614f296080840182614d84565b50606083015160a0830152608083015160c083015260a083015160e083015260c0830151614f5b610100840182614d3d565b5060e0830151610120830152949350505050565b600060e08201905060018060a01b0380861683528085166020840152808451166040840152602084015115156060840152604084015115156080840152606084015160a08401528060808501511660c084015250949350505050565b6001600160a01b039485168152928416602084015292166040820152606081019190915260800190565b600060208252611d056020830184614d8a565b60208082526015908201527420b2323932b9b9903737ba1034b71030b93930bc9760591b604082015260600190565b60208082526028908201527f4d75737420626520612076616c696420616e6420696e697469616c697a65642060408201526729b2ba2a37b5b2b760c11b606082015260800190565b6020808252601c908201527f436f6c6c61746572616c2062616c616e63652072656d61696e696e6700000000604082015260600190565b60208082526026908201527f4f776e61626c653a206e6577206f776e657220697320746865207a65726f206160408201526564647265737360d01b606082015260800190565b6020808252601b908201527f536166654d6174683a206164646974696f6e206f766572666c6f770000000000604082015260600190565b6020808252601e908201527f4d7573742062652070656e64696e6720696e697469616c697a6174696f6e0000604082015260600190565b60208082526021908201527f5369676e6564536166654d6174683a206164646974696f6e206f766572666c6f6040820152607760f81b606082015260800190565b60208082526015908201527426bab9ba103132903b30b634b21030b230b83a32b960591b604082015260600190565b6020808252818101527f53616665436173743a2076616c7565206d75737420626520706f736974697665604082015260600190565b60208082526018908201527f4f6e6c7920746865206d6f64756c652063616e2063616c6c0000000000000000604082015260600190565b60208082526021908201527f5369676e6564536166654d6174683a206469766973696f6e206f766572666c6f6040820152607760f81b606082015260800190565b60208082526018908201527f49737375616e6365206e6f7420696e697469616c697a65640000000000000000604082015260600190565b60208082526021908201527f536166654d6174683a206d756c7469706c69636174696f6e206f766572666c6f6040820152607760f81b606082015260800190565b60208082526010908201526f24b73b30b634b21029b2ba2a37b5b2b760811b604082015260600190565b6020808252818101527f4f776e61626c653a2063616c6c6572206973206e6f7420746865206f776e6572604082015260600190565b6020808252601490820152732737ba1030b63637bbb2b21029b2ba2a37b5b2b760611b604082015260600190565b60208082526027908201527f5369676e6564536166654d6174683a206d756c7469706c69636174696f6e206f604082015266766572666c6f7760c81b606082015260800190565b6020808252601d908201527f496e76616c696420706f7374207472616e736665722062616c616e6365000000604082015260600190565b6020808252600b908201526a0416d6f756e7420697320360ac1b604082015260600190565b6020808252601490820152730576974686472617720616d6f756e7420697320360641b604082015260600190565b60208082526028908201527f53616665436173743a2076616c756520646f65736e27742066697420696e2061604082015267371034b73a191a9b60c11b606082015260800190565b60208082526024908201527f4d6f64756c65206d75737420626520656e61626c6564206f6e20636f6e74726f604082015263363632b960e11b606082015260800190565b60208082526023908201527f4d75737420626520636f6e74726f6c6c65722d656e61626c656420536574546f60408201526235b2b760e91b606082015260800190565b6020808252601c908201527f4d7573742062652074686520536574546f6b656e206d616e6167657200000000604082015260600190565b60208082526024908201527f5369676e6564536166654d6174683a207375627472616374696f6e206f766572604082015263666c6f7760e01b606082015260800190565b60208082526026908201527f5065727020636f6c6c61746572616c20746f6b656e206973206e6f7420636f6d6040820152651c1bdb995b9d60d21b606082015260800190565b6020808252818101527f5369676e6564536166654d6174683a206469766973696f6e206279207a65726f604082015260600190565b6020808252601f908201527f5265656e7472616e637947756172643a207265656e7472616e742063616c6c00604082015260600190565b8151815260208083015190820152604080830151908201526060918201519181019190915260800190565b90815260200190565b938452602084019290925260408301521515606082015260800190565b60405181810167ffffffffffffffff811182821017156156c957600080fd5b604052919050565b60005b838110156156ec5781810151838201526020016156d4565b83811115610d625750506000910152565b6001600160a01b0381168114611cb257600080fd5b8015158114611cb257600080fdfea2646970667358221220bbc935cfd4d076735b3e761bc91128df6fbeb95a4a55bd87da236197a2ede4c364736f6c634300060a0033",
  "linkReferences": {
    "contracts/protocol/integration/lib/PerpV2.sol": {
      "PerpV2": [
        {
          "length": 20,
          "start": 8400
        },
        {
          "length": 20,
          "start": 10285
        },
        {
          "length": 20,
          "start": 11854
        },
        {
          "length": 20,
          "start": 15378
        }
      ]
    }
  },
  "deployedLinkReferences": {
    "contracts/protocol/integration/lib/PerpV2.sol": {
      "PerpV2": [
        {
          "length": 20,
          "start": 7786
        },
        {
          "length": 20,
          "start": 9671
        },
        {
          "length": 20,
          "start": 11240
        },
        {
          "length": 20,
          "start": 14764
        }
      ]
    }
  }
}